:020000040800F2
:100000000080012071260008192300081F23000822
:10001000252300082B2300083123000800000000DE
:10002000000000000000000000000000372300086E
:100030004523000800000000532300086123000846
:10004000C1260008C1260008C1260008C1260008F4
:10005000C1260008C1260008C1260008C1260008E4
:10006000C1260008C1260008C1260008C1260008D4
:10007000C1260008C1260008C1260008C1260008C4
:100080006D23000881230008C1260008C12600084E
:10009000C1260008C1260008C1260008C1260008A4
:1000A000C1260008C1260008C1260008C126000894
:1000B000C1260008C1260008C1260008C126000884
:1000C000C1260008C1260008C1260008C126000874
:1000D000C1260008C126000895230008C126000893
:1000E000C1260008C1260008C1260008C126000854
:1000F000C1260008C1260008C1260008C126000844
:10010000C1260008C1260008C1260008C126000833
:10011000C1260008C1260008C1260008C126000823
:10012000C1260008C1260008C1260008C126000813
:10013000C1260008C1260008C1260008C126000803
:10014000C1260008C1260008C1260008C1260008F3
:10015000C1260008C1260008C1260008C1260008E3
:10016000C1260008C1260008C1260008C1260008D3
:10017000C1260008C1260008C126000800000000B2
:08018000C1260008C126000899
:1001880010B5054C237833B9044B13B10448AFF3C9
:1001980000800123237010BD8000002000000000B3
:1001A8006C62000808B5034B1BB103490348AFF361
:1001B800008008BD00000000840000206C62000878
:1001C800034613F8012B002AFBD1181A013870478F
:1001D80053B94AB9002908BF00281CBF4FF0FF31A6
:1001E8004FF0FF3000F070B9ADF1080C6DE904CEA6
:1001F80000F006F8DDF804E0DDE9022304B07047FA
:100208002DE9F047089E0D4604460F46002B4AD1BB
:100218008A42944665D9B2FA82F343B102FA03FCE2
:10022800C3F120029F4020FA02F217439C404FEA94
:100238001C4E1FFA8CF5B7FBFEF1220C0EFB117752
:1002480042EA074201FB05F090420AD91CEB020280
:1002580001F1FF3780F01C81904240F21981023988
:100268006244121AA4B2B2FBFEF00EFB102244EA5A
:10027800024400FB05F5A5420AD91CEB040400F171
:10028800FF3280F00781A54240F2048164440238BD
:1002980040EA0140641B00211EB1DC400023C6E98E
:1002A8000043BDE8F0878B4208D9002E00F0ED80AE
:1002B8000021C6E900050846BDE8F087B3FA83F1D6
:1002C800002949D1AB4202D3824200F2F880841A55
:1002D80065EB030201201746002EE2D0C6E900476D
:1002E800DFE702B9FFDEB2FA82F3002B40F090801C
:1002F8008A1A4FEA1C471FFA8CFE0121B2FBF7F558
:1003080007FB1520220C42EA00420EFB05F0904242
:1003180008D91CEB020205F1FF3802D2904200F224
:10032800CB804546121AA4B2B2FBF7F007FB1022A5
:1003380044EA02440EFB00FEA64508D91CEB04045F
:1003480000F1FF3202D2A64500F2BB801046A4EBB2
:100358000E0440EA05409FE7C1F120078B4022FACE
:1003680007FC4CEA030C05FA01F420FA07F3FD40F8
:100378004FEA1C492343B5FBF9F81FFA8CFE09FB29
:1003880018551C0C44EA054408FB0EF5A54202FA70
:1003980001F200FA01F00BD91CEB040408F1FF3A52
:1003A80080F08880A54240F28580A8F10208644464
:1003B800641B9DB2B4FBF9F309FB134445EA0444FA
:1003C80003FB0EFEA64508D91CEB040403F1FF3518
:1003D8006CD2A6456AD9023B644443EA0843A3FBAE
:1003E8000295A4EB0E04AC42C846AE4656D353D091
:1003F80056B1B0EB080264EB0E0404FA07F7CA40E2
:10040800CC401743C6E9007418460021BDE8F087C0
:10041800C3F1200102FA03FC20FA01F225FA01F1E6
:100428009D402A434FEA1C471FFA8CFEB1FBF7F0A8
:1004380007FB1015110C41EA054100FB0EF58D4232
:1004480004FA03F408D91CEB010100F1FF382FD29C
:100458008D422DD902386144491B92B2B1FBF7F5A0
:1004680007FB151142EA014205FB0EF1914208D93A
:100478001CEB020205F1FF3816D2914214D9023D55
:100488006244521A45EA004138E73146304608E7E7
:100498003946E6E61046FBE64845A9D2B9EB02081C
:1004A80065EB0C0E013BA3E74546EAE72B4694E7CC
:1004B8004046D1E7D0467BE7023D624432E7084632
:1004C8000AE76444023842E7704700BF80B582B04B
:1004D80000AF104B9B6C0F4A43F0010393640D4B24
:1004E8009B6C03F001037B607B68002200211020D5
:1004F80002F05FFA102002F078FA002200211120A1
:1005080002F057FA112002F070FA00BF0837BD4612
:1005180080BD00BF0010024080B485B000AF154B0D
:10052800DB6C144A43F00403D364124BDB6C03F016
:100538000403FB60FB680F4BDB6C0E4A43F080033F
:10054800D3640C4BDB6C03F08003BB60BB68094BC6
:10055800DB6C084A43F00803D364064BDB6C03F0FA
:1005680008037B607B6800BF1437BD465DF8047BD9
:10057800704700BF0010024080B500AF02F09EF83F
:1005880000F00BF8FFF7C8FFFFF7A0FF01F07CFFB2
:1005980001F076F901F084F9FCE780B596B000AF78
:1005A80007F1140344220021184605F008FD3B46D4
:1005B80000221A605A609A60DA601A614FF480600B
:1005C80002F05CFE0346002B14BF01230023DBB2BC
:1005D800002B01D000F041F802237B614FF48073B7
:1005E8003B6210237B620223FB6302233B640423E8
:1005F8007B641A23BB640723FB6402233B65042343
:100608007B6507F11403184602F08EFE0346002BA3
:1006180014BF01230023DBB2002B01D000F01DF82A
:100628000F233B6003237B600023BB600023FB6038
:1006380000233B613B460421184603F051FA034668
:10064800002B14BF01230023DBB2002B01D000F0E4
:1006580004F800BF5837BD4680BD80B400AF72B6FD
:1006680000BFFEE780B483B000AF78607B680022EB
:100678001A607B6800225A607B6818460C37BD46B2
:100688005DF8047B7047000080B483B000AF7860E9
:10069800044A7B681A607B6818460C37BD465DF8CB
:1006A800047B70479464000880B582B000AF78601E
:1006B8007B681846FFF7E8FF064A7B681A607B6884
:1006C80004331846FFF7CEFF7B6818460837BD4647
:1006D80080BD00BF7C64000880B485B000AF78603E
:1006E80039600023FB607B685968FB683A681344EB
:1006F800CAB21A707B685B68190AFB6801333A68EA
:100708001344CAB21A707B685B68190CFB68023321
:100718003A681344CAB21A707B685B68190EFB68A2
:1007280003333A681344CAB21A70FB680433FB6097
:100738007B689968FB683A681344CAB21A707B6888
:100748009B68190AFB6801333A681344CAB21A70E5
:100758007B689B68190CFB6802333A681344CAB279
:100768001A707B689B68190EFB6803333A68134458
:10077800CAB21A70FB680433FB60FB68184614376A
:10078800BD465DF8047B704780B485B000AF7860E3
:1007980039600023FB60FB683A6813441B781A46EB
:1007A8007B685A607B685A68FB68013339680B4478
:1007B8001B781B021A437B685A607B685A68FB687F
:1007C800023339680B441B781B041A437B685A6050
:1007D8007B685A68FB68033339680B441B781B062F
:1007E8001A437B685A60FB680433FB60FB683A680D
:1007F80013441B781A467B689A607B689A68FB6882
:10080800013339680B441B781B021A437B689A60D2
:100818007B689A68FB68023339680B441B781B04B1
:100828001A437B689A607B689A68FB680333396867
:100838000B441B781B061A437B689A60FB680433D9
:10084800FB60FB6818461437BD465DF8047B7047AB
:1008580080B483B000AF7860034B18460C37BD46B0
:100868005DF8047B704700BF8462000880B483B0E1
:1008780000AF7860034B18460C37BD465DF8047B23
:10088800704700BF9462000880B582B000AF7860FE
:100898007B681846FFF7F8FE0B4A7B681A607B688E
:1008A80000229A807B68094A9A607B68074ADA6066
:1008B8007B68064A1A617B6800225A617B68184681
:1008C8000837BD4680BD00BF64640008B8620008F0
:1008D80080B588B000AF786039600023FB617B6821
:1008E8009988FB693A681344CAB21A707B689B8876
:1008F8001B0A99B2FB6901333A681344CAB21A70E9
:10090800FB690233FB617B689B681846FFF758FC5C
:10091800B861FB693A681344B969184600F0DAFF10
:10092800FB690433FB61FB693A68D0187B689B68F4
:10093800BA69194605F078FBFA69BB691344FB618B
:100948007B68DB681846FFF73BFC7861FB693A680F
:1009580013447969184600F0BDFFFB690433FB6155
:10096800FB693A68D0187B68DB687A69194605F034
:100978005BFBFA697B691344FB617B681B6918465A
:10098800FFF71EFC3861FB693A6813443969184659
:1009980000F0A0FFFB690433FB61FB693A68D018DB
:1009A8007B681B693A69194605F03EFBFA693B69A1
:1009B8001344FB617B685B69FB60F968FB693A6813
:1009C8001344CAB21A70FB68190AFB6901333A6802
:1009D8001344CAB21A70FB68190CFB6902333A68EF
:1009E8001344CAB21A70FB68190EFB6903333A68DC
:1009F8001344CAB21A70FB690433FB61FB691846D9
:100A08002037BD4680BD80B58AB000AF78603960B8
:100A18000023BB61BB693A6813441B789AB27B68B0
:100A28009A807B689B881AB2BB69013339680B448A
:100A38001B781B021BB213431BB29AB27B689A80C5
:100A4800BB690233BB61BB693A681A4407F11403F6
:100A58001146184600F05DFFBB690433BB61BB69F2
:100A68007B620BE03A687B6A1A447B6A013B39680F
:100A78000B4412781A707B6A01337B62BA697B690E
:100A880013447A6A9A42EDD3BA697B691344013BED
:100A98003A68134400221A70BB69013B3A681A4449
:100AA8007B689A60BA697B691344BB61BB693A6821
:100AB8001A4407F110031146184600F02AFFBB69D3
:100AC8000433BB61BB693B620BE03A683B6A1A447A
:100AD8003B6A013B39680B4412781A703B6A013350
:100AE8003B62BA693B6913443A6A9A42EDD3BA69E0
:100AF8003B691344013B3A68134400221A70BB69EE
:100B0800013B3A681A447B68DA60BA693B69134466
:100B1800BB61BB693A681A4407F10C0311461846D1
:100B280000F0F7FEBB690433BB61BB69FB610BE0F6
:100B38003A68FB691A44FB69013B39680B4412782F
:100B48001A70FB690133FB61BA69FB681344FA69DF
:100B58009A42EDD3BA69FB681344013B3A681344DF
:100B680000221A70BB69013B3A681A447B681A6113
:100B7800BA69FB681344BB610023BB60BB68BA69F0
:100B880039680A4412781343BB60BA68BB690133F9
:100B980039680B441B781B021343BB60BA68BB69F6
:100BA800023339680B441B781B041343BB60BA68D3
:100BB800BB69033339680B441B781B061343BB60BE
:100BC800BA687B685A61BB690433BB61BB69184664
:100BD8002837BD4680BD000080B483B000AF786080
:100BE800034B18460C37BD465DF8047B704700BFC1
:100BF800BC62000880B483B000AF7860034B18462D
:100C08000C37BD465DF8047B704700BFD86200080A
:100C180080B582B000AF78607B681846FFF734FD76
:100C2800064A7B681A607B6800221A717B68044A4E
:100C38009A607B6818460837BD4680BD4C6400083A
:100C4800B862000880B584B000AF786039600023CE
:100C5800FB60FB683A6813447A6812791A70FB687B
:100C68000133FB607B689B681846FFF7A9FAB860F8
:100C7800FB683A681344B968184600F02BFEFB6815
:100C88000433FB60FB683A68D0187B689B68BA68D5
:100C9800194605F0C9F9FA68BB681344FB60FB689C
:100CA80018461037BD4680BD80B586B000AF786065
:100CB800396000233B613B693A6813441A787B68C2
:100CC8001A713B6901333B613B693A681A4407F181
:100CD8000C031146184600F01CFE3B6904333B61C7
:100CE8003B697B610BE03A687B691A447B69013B8D
:100CF80039680B4412781A707B6901337B613A6951
:100D0800FB6813447A699A42EDD33A69FB68134445
:100D1800013B3A68134400221A703B69013B3A6868
:100D28001A447B689A603A69FB6813443B613B69E3
:100D380018461837BD4680BD80B483B000AF7860D0
:100D4800034B18460C37BD465DF8047B704700BF5F
:100D5800FC62000880B483B000AF7860034B18468B
:100D68000C37BD465DF8047B704700BF1063000870
:100D780080B582B000AF78607B681846FFF784FCC6
:100D8800114A7B681A607B6800225A607B680022DF
:100D98009A607B680022DA607B6800221A617B68AF
:100DA8004FF000025A617B6800229A617B6800223A
:100DB800DA617B6800221A627B6800225A627B68CB
:100DC80018460837BD4680BD3464000880B58AB02F
:100DD80000AF7860396000237B627B6859687B6A62
:100DE8003A681344CAB21A707B685B68190A7B6A4E
:100DF80001333A681344CAB21A707B685B68190CED
:100E08007B6A02333A681344CAB21A707B685B681B
:100E1800190E7B6A03333A681344CAB21A707B6AA4
:100E280004337B6200233B622AE07B68DA683B6A12
:100E38009B0013441B683B6139697B6A3A68134419
:100E4800CAB21A703B69190A7B6A01333A681344BB
:100E5800CAB21A703B69190C7B6A02333A681344A8
:100E6800CAB21A703B69190E7B6A03333A68134495
:100E7800CAB21A707B6A04337B623B6A01333B62F5
:100E88007B685B683A6A9A42CFD37B6819697B6A48
:100E98003A681344CAB21A707B681B69190A7B6ADC
:100EA80001333A681344CAB21A707B681B69190C7B
:100EB8007B6A02333A681344CAB21A707B681B69AA
:100EC800190E7B6A03333A681344CAB21A707B6AF4
:100ED80004337B620023FB612AE07B689A69FB6923
:100EE8009B0013441B68FB60F9687B6A3A681344EB
:100EF800CAB21A70FB68190A7B6A01333A6813444C
:100F0800CAB21A70FB68190C7B6A02333A68134438
:100F1800CAB21A70FB68190E7B6A03333A68134425
:100F2800CAB21A707B6A04337B62FB690133FB61C6
:100F38007B681B69FA699A42CFD37B68D9697B6A57
:100F48003A681344CAB21A707B68DB69190A7B6A6B
:100F580001333A681344CAB21A707B68DB69190C0A
:100F68007B6A02333A681344CAB21A707B68DB6939
:100F7800190E7B6A03333A681344CAB21A707B6A43
:100F880004337B620023BB6127E07B685A6ABB6934
:100F98009B0013441B681846FFF712F978617B6AB7
:100FA8003A6813447969184600F094FC7B6A043364
:100FB8007B627B6A3A68D0187B685A6ABB699B0077
:100FC80013441B687A69194605F02EF87A6A7B691A
:100FD80013447B62BB690133BB617B68DB69BA6917
:100FE8009A42D2D37B6A18462837BD4680BD80B561
:100FF8008EB000AF7860396000237B637B6B3A6802
:1010080013441B783B627B6B01333A6813441B78AB
:101018001B023A6A13433B627B6B02333A68134400
:101028001B781B043A6A13433B627B6B03333A68B1
:1010380013441B781B063A6A13433B627B6B0433E9
:101048007B637B685B683A6A9A420AD97B68DA688C
:101058003B6A9B001946104604F07AFF02467B68FB
:10106800DA607B683A6A5A6000233B6335E0002304
:101078007B617B697A6B39680A44127813437B6118
:101088007A697B6B013339680B441B781B02134365
:101098007B617A697B6B023339680B441B781B04CC
:1010A80013437B617A697B6B033339680B441B7884
:1010B8001B0613437B617A697B689A607B6B0433F8
:1010C8007B637B68DA683B6B9B0013447A68083261
:1010D80012681A603B6B01333B637B685B683A6B51
:1010E8009A42C4D37B6B3A6813441B78FB617B6BD1
:1010F80001333A6813441B781B02FA691343FB61F6
:101108007B6B02333A6813441B781B04FA69134358
:10111800FB617B6B03333A6813441B781B06FA693F
:101128001343FB617B6B04337B637B681B69FA6940
:101138009A420AD97B689A69FB699B00194610464E
:1011480004F006FF02467B689A617B68FA691A61B7
:101158000023FB6235E000233B613B697A6B396809
:101168000A44127813433B613A697B6B013339684F
:101178000B441B781B0213433B613A697B6B0233B8
:1011880039680B441B781B0413433B613A697B6B3A
:10119800033339680B441B781B0613433B613A69D8
:1011A8007B685A617B6B04337B637B689A69FB6A53
:1011B8009B0013447A68143212681A60FB6A013380
:1011C800FB627B681B69FA6A9A42C4D37B6B3A68F4
:1011D80013441B78BB617B6B01333A6813441B785B
:1011E8001B02BA691343BB617B6B02333A68134431
:1011F8001B781B04BA691343BB617B6B03333A68E2
:1012080013441B781B06BA691343BB617B6B043319
:101218007B637B68DB69BA699A420AD97B685A6A38
:10122800BB699B001946104604F092FE02467B6893
:101238005A627B68BA69DA610023BB623EE07B6B65
:101248003A681A4407F10C031146184600F061FB8E
:101258007B6B04337B637B6B7B620BE03A687B6A56
:101268001A447B6A013B39680B4412781A707B6A0E
:1012780001337B627A6BFB6813447A6A9A42EDD336
:101288007A6BFB681344013B3A68134400221A70D6
:101298007B6B013B3A681A447B681A627A6BFB687D
:1012A80013447B637B685A6ABB6A9B0013447A6861
:1012B800203212681A60BB6A0133BB627B68DB6943
:1012C800BA6A9A42BBD37B6B18463837BD4680BD95
:1012D80080B483B000AF7860034B18460C37BD4626
:1012E8005DF8047B704700BFD063000880B483B00A
:1012F80000AF7860034B18460C37BD465DF8047B99
:10130800704700BF3463000880B485B000AFF86050
:10131800B9607A603B60FB68BA681A60FB687A68F3
:101328005A60FB683A681A61FB6818461437BD466C
:101338005DF8047B704780B582B000AF7860396093
:101348007B68D8687B68DB681B681B687A6891686B
:101358003A689847034618460837BD4680BD80B4AA
:1013680083B000AF78607B681B6918460C37BD46B0
:101378005DF8047B704780B483B000AF78607B6809
:101388001B685B6F1B685B68C3F50073C3F30803D6
:1013980018460C37BD465DF8047B704780B483B0AF
:1013A80000AF78607B680A4A1A607B680022C3F83D
:1013B80004227B680022C3F808247B680022C3F853
:1013C8000C247B6818460C37BD465DF8047B7047D3
:1013D800FC09002080B582B000AF7860786800F022
:1013E80004F800BF0837BD4680BD80B582B000AFA5
:1013F80078607B6818687B6804334FF4007219467C
:1014080003F018FB00BF0837BD4680BD90B585B016
:1014180000AF78604FF0FF33FB607B68D3F804427D
:101428007868FFF7A8FF03469C4214BF01230023F6
:10143800DBB2002B12D07B68D3F80432591C7A68CF
:10144800C2F804127A6813441B79FB607B68D3F8EE
:101458000432C3F308027B68C3F80422FB68184609
:101468001437BD4690BD000080B584B000AF7860E9
:101478007B681B68DB6F202B08D1334B1B7883F00C
:101488000103DBB2002B01D0012300E00023002B75
:1014980055D02D4B01221A707B68D3F808247B683D
:1014A800D3F80C349A4247D00023FB817B68D3F8E9
:1014B8000C247B68D3F808349A4217D27B68D3F897
:1014C80008349AB27B68D3F80C349BB2D31AFB81E8
:1014D8007B6818687B68D3F80C3403F502737A6864
:1014E8001344FA89194603F029FA1FE07B68D3F8F8
:1014F8000C349BB2C3F50073FB817B6818687B686A
:10150800D3F80C3403F502737A681344FA89194640
:1015180003F014FA7B6818687B6803F502717B682E
:10152800D3F808349BB21A4603F008FA7B68D3F85C
:1015380008247B68C3F80C24034B00221A7000BFF0
:101548001037BD4680BD00BF9C00002080B586B026
:1015580000AFF860B9607A607B687B617B69B3F53E
:10156800007FA8BF4FF400737B61FB68D3F8083491
:10157800C3F500727B69934228BF13463B61FB6841
:10158800D3F8083403F50273FA6813443A69B96862
:10159800184604F049FDFB68D3F808247B69134416
:1015A800C3F30802FB68C3F808247A693B699A42C6
:1015B8000BD0FB6803F502703B69BA68D1187A69E9
:1015C8003B69D31A1A4604F02FFDF868FFF74CFF61
:1015D80000BF1837BD4680BD80B582B000AF7860C7
:1015E80001F0DCF8034618460837BD4680BD000008
:1015F80080B582B000AF78607B681846FFF744F882
:10160800054A7B681A607B68044A5A607B681846FA
:101618000837BD4680BD00BF08640008B8620008EE
:1016280080B584B000AF786039600023FB607B68C8
:101638005B681846FEF7C4FDB860FB683A68134457
:10164800B968184600F046F9FB680433FB60FB688C
:101658003A68D0187B685B68BA68194604F0E4FCFD
:10166800FA68BB681344FB60FB6818461037BD4630
:1016780080BD80B586B000AF7860396000233B61DB
:101688003B693A681A4407F10C031146184600F002
:1016980040F93B6904333B613B697B610BE03A6885
:1016A8007B691A447B69013B39680B4412781A70CC
:1016B8007B6901337B613A69FB6813447A699A4212
:1016C800EDD33A69FB681344013B3A68134400229E
:1016D8001A703B69013B3A681A447B685A603A6958
:1016E800FB6813443B613B6918461837BD4680BD0B
:1016F80080B483B000AF7860034B18460C37BD4602
:101708005DF8047B704700BF5863000880B483B05D
:1017180000AF7860034B18460C37BD465DF8047B74
:10172800704700BF6863000880B483B000AF78607A
:10173800044A7B681A607B6818460C37BD465DF81A
:10174800047B70472064000880B582B000AF7860E1
:101758007B681846FFF7E8FF364A7B681A607B68A3
:1017680004331846FFF71AFE7B680022C3F81424D6
:101778007B680022C3F818247B680022C3F81C2465
:101788007B680022C3F820247B6803F224434FF4CB
:1017980000720021184604F012FC7B6803F22463EF
:1017A8004FF400720021184604F009FC7B6803F628
:1017B800240364220021184604F001FC7B6803F628
:1017C800880364220021184604F0F9FB7B68002294
:1017D800C3F8EC287B680022C3F8F0287B68002255
:1017E800C3F8F4287B680022C3F8F8287B68002235
:1017F800C3F8FC287B68002283F800297B68002254
:10180800C3F804297B680022C3F808297B680022F2
:10181800C3F80C297B68002283F810297B6803F63B
:1018280014131846FFF7A4FA7B6818460837BD4614
:1018380080BD00BFF463000880B582B000AF786057
:10184800054800F08CF803461846FFF70DFE00BF68
:101858000837BD4680BD00BFA000002080B582B01B
:1018680000AF7860054800F07AF803461846FFF79D
:10187800BCFD00BF0837BD4680BD00BFA0000020EA
:1018880080B500AF044800F076F80449024800F03B
:101898008FF800BF80BD00BFA0000020E409002031
:1018A80080B500AF074B084A5A6006490748FFF75A
:1018B80042FD074800F0ACF8642000F07BFF00BF51
:1018C80080BD00BFDC09002000000020E4090020E2
:1018D800A000002080B485B000AF78603960002394
:1018E800FB600CE0FB68DB003A6822FA03F17A68D7
:1018F800FB681344CAB21A70FB680133FB60FB68CB
:10190800032BEFD900BF00BF1437BD465DF8047B39
:10191800704780B485B000AF786039607B6800227A
:101928001A600023FB6010E07B681B683968FA685E
:101938000A4412781146FA68D20001FA02F21A43F0
:101948007B681A60FB680133FB60FB68032BEBD9EB
:1019580000BF00BF1437BD465DF8047B704780B4F4
:1019680083B000AF78607B68043318460C37BD46F7
:101978005DF8047B704780B582B000AF78607B6803
:1019880004331846FFF726FD7B680022C3F8EC28CD
:101998007B680022C3F8F0287B680022C3F8F82887
:1019A8007B680022C3F8F42800BF0837BD4680BD15
:1019B80080B485B000AF786039600023FB601DE01B
:1019C8007A68FB6803F502739B0013445B68002B7D
:1019D80011D17A68FB6803F502739B0013443A68D7
:1019E8005A60FB6803F17D023B689A607A683B683D
:1019F800DA60012306E0FB680133FB60FB68182B03
:101A0800DEDD002318461437BD465DF8047B7047B9
:101A180080B584B000AF78607B6804331846FFF760
:101A2800DBFDF8607B68D3F80839FA68D31A42F608
:101A3800F822934203D97B68002283F800297B6847
:101A4800D3F8EC38002B09D07B68D3F80C39FA6846
:101A58009A4203D97B680022C3F8EC287B68D3F844
:101A68002034002B14D07B6804331846FFF7B4FDEC
:101A78000246FB68D21A7B68D3F820349A428CBF9E
:101A880001230023DBB2002B02D06FF0010394E1A5
:101A98007B6804331846FFF7B9FCB860BB68002BB5
:101AA800C0F274817B68D3F8FC28BB681A447B6851
:101AB800C3F8FC287B68D3F8EC38072B1ED17B6869
:101AC800D3F8F838591C7A68C2F8F818BA68D1B24D
:101AD8007A6813440A4683F824247B68D3F8F038DC
:101AE8005A1E7B68C3F8F0287B68D3F8F038002BBF
:101AF800B4D17B680822C3F8EC28AFE77B68D3F839
:101B0800EC38002B28D1BB68FF2B0DD17B68D3F8AC
:101B1800EC385A1C7B68C3F8EC28FB6803F1140204
:101B28007B68C3F80C2999E77B6804331846FFF7EC
:101B380053FD0246FB68D31A41F2883293428CBFA8
:101B480001230023DBB2002B88D07B68002283F8B6
:101B580000296FF0010330E17B68D3F8EC38012BE2
:101B680018D1BB68FE2B07D17B68D3F8EC385A1C18
:101B78007B68C3F8EC2871E77B680022C3F8EC287F
:101B88007B6893F80039002B7FF468AF786800F021
:101B980018F963E77B68D3F8EC38022B13D17B681C
:101BA800BA68C3F8F0287B680022C3F8F8287B6875
:101BB800D3F8EC385A1C7B68C3F8EC287B68BA6801
:101BC800C3F8FC284AE77B68D3F8EC38032B10D11C
:101BD8007B68D3F8F028BB681B021A447B68C3F8FB
:101BE800F0287B68D3F8EC385A1C7B68C3F8EC28DB
:101BF80034E77B68D3F8EC38042B16D17B68D3F82C
:101C0800FC385A42DBB2D2B258BF5342FF2B07D13D
:101C18007B68D3F8EC385A1C7B68C3F8EC281DE7BE
:101C28007B680022C3F8EC2818E77B68D3F8EC3807
:101C3800052B0FD17B68BA68C3F8F4287B68D3F802
:101C4800EC385A1C7B68C3F8EC287B68BA68C3F880
:101C5800FC2803E77B68D3F8EC38062B17D17B68A0
:101C6800D3F8F428BB681B021A447B68C3F8F4282D
:101C78007B680722C3F8EC287B68D3F8F038002B80
:101C88007FF4ECAE7B680822C3F8EC28E6E67B68B4
:101C9800D3F8EC38082B7FF4E1AE7B680022C3F858
:101CA800EC287B68D3F8FC385A42DBB2D2B258BF72
:101CB8005342FF2B7FF4D2AE7B68D3F8F438002B65
:101CC80010D1786800F07DF8786800F098F87B68A3
:101CD800FA68C3F804297B68FA68C3F808294FF042
:101CE800FF336AE07B68D3F8F4380A2B07D17B68A6
:101CF80003F224431946786800F060F9AEE67B6881
:101D0800D3F8F438062B0ED17B6803F614127B68DF
:101D180003F2244319461046FFF769F97B6801224C
:101D280083F810299AE67B68D3F8F4380B2B04D192
:101D38007B68002283F8002990E67B68D3F8F438A2
:101D4800A3F164027B6802F2222253F82230002BAE
:101D58003FF484AE7B68D3F8F438A3F164027B685F
:101D680002F2222253F822007B68D3F8F438A3F158
:101D780064027B6802F2222253F822301B681B6837
:101D88007A6802F224421146984767E600BF7B68EA
:101D980093F80039002B0FD07B68D3F80439FA6820
:101DA800D31A40F6C412934206D9786800F009F8AD
:101DB8007B68FA68C3F80429002318461037BD4623
:101DC80080BD80B586B000AF786007F10C03184677
:101DD800FEF76AFC7B681B681B6807F10C020A2186
:101DE800786898477B6804331846FFF7F5FB024686
:101DF8007B68C3F8142400BF1837BD4680BD90B572
:101E08008BB000AF786007F10C031846FEF73CFD75
:101E180000237B6262E07A687B6A03F502739B00A9
:101E280013445B68002B56D07A687B6A03F502730B
:101E38009B0013445B689B689BB23B827A687B6A11
:101E480003F502739B0013445B681B687B617A6827
:101E58007B6A03F502739B0013445B6859687A68D0
:101E68007B6A03F502739B0013445B685B681B681D
:101E780008331B68084698470346BB617A687B6A43
:101E880003F502739B0013445B6859687A687B6AA0
:101E980003F502739B0013445B685B681B680C3393
:101EA8001B68084698470346FB614FF400733B6282
:101EB8007B681B681C687A687B6A03F502739B0061
:101EC80013445B681846FFF74AFA014607F10C030A
:101ED8001A467868A0477B6A01337B627B6A182BB5
:101EE80099DD00237B625EE07B687A6A02F2222237
:101EF80053F82230002B53D07B687A6A02F22222F0
:101F080053F822305B689BB23B827B687A6A02F2A4
:101F1800222253F822309B687B617B687A6A02F23E
:101F2800222253F822107B687A6A02F2222253F89E
:101F380022301B6808331B68084698470346BB6174
:101F48007B687A6A02F2222253F822107B687A6A46
:101F580002F2222253F822301B680C331B68084611
:101F680098470346FB614FF400733B627B681B682C
:101F78001C687B687A6A02F2222253F822107B6876
:101F88007A6A02F2222253F822301B6804331B6853
:101F980008469847014607F10C031A467868A04797
:101FA8007B6A01337B627B6A182B9DDD7B6801228B
:101FB80083F8002900BF2C37BD4690BD80B586B098
:101FC80000AF7860396007F108031846FEF76CFB2C
:101FD8007B6804331846FFF7FFFA02467B68D3F89C
:101FE8001434D31A7B6107F1080339681846FEF7E1
:101FF800CBFBFA687B691549A1FB03139B091344C2
:10200800FB6039697A69114BA3FB02039B094FF402
:102018007A7000FB03F3D31A0D4A02FB03F30B4457
:102028003B6107F1080304331946786800F0A6F805
:102038007B6804331846FFF7CFFA02467B68C3F87B
:10204800082900BF1837BD4680BD00BFD34D6210B8
:1020580040420F0080B588B000AFF860B9607A6080
:10206800BB68632B09DDFB6893F8003983F0010333
:10207800DBB2002B01D0002379E07B681B681B686A
:10208800FA6802F224620732114678689847786144
:10209800FB68FF2283F82426FB68FE2283F82526A6
:1020A8007B69DAB2FB6883F826267B699BB21B0A38
:1020B8009BB2DAB2FB6883F82726FB6893F82626DA
:1020C800FB6893F827361344DBB2DB43DAB2FB68CC
:1020D80083F82826BB68DAB2FB6883F82926BB6830
:1020E8001BB21B121BB2DAB2FB6883F82A26002344
:1020F800FB610523BB610CE0FA68BB69134403F27A
:1021080024631B781A46FB691344FB61BB690133DE
:10211800BB617B690633BA699A42EDDD7B69073397
:102128007B61FB695A42DBB2D2B258BF5342DAB282
:102138007B69591C7961D243D1B2FA6813440A46C3
:1021480083F824267B69B3F5007F0ADCFB68181D39
:10215800FB6803F224637A691946FFF7F7F97B698C
:1021680005E00549F86800F049F84FF0FF331846D4
:102178002037BD4680BD00BF8C63000880B584B0A1
:1021880000AF786039607B6804331846FFF724FA9B
:10219800F8603B681A68FB681549A1FB03139B09A3
:1021A800D31A5A1E7B68C3F818243B685968FA6822
:1021B8000F4BA3FB02039B094FF47A7000FB03F358
:1021C800D31A0C4A02FB03F3CA1A0B4B13447A685E
:1021D800C2F81C347B6803F583627B6803F21C43F6
:1021E8001946104600F024F900BF1037BD4680BDDF
:1021F800D34D621040420F0000CA9A3B80B582B0AE
:1022080000AF786039603A680321786800F004F814
:1022180000BF0837BD4680BD80B588B000AFF86004
:102228000B467A60FB7207F114031846FEF7F0FCC0
:10223800FB7A3B767B68FB61FB681B681B6807F1D0
:1022480014020721F868984700BF2037BD4680BDB3
:1022580080B582B000AF786039607B68012B10D1FF
:102268003B684FF6FF7293420BD10848FFF76CFAB0
:102278000748FFF7BDF90023054A06490648FFF756
:1022880043F800BF0837BD4680BD00BFA00000204E
:10229800DC090020C8630008E409002080B483B08A
:1022A80000AF78607B6893F8003918460C37BD4654
:1022B8005DF8047B704780B500AF4FF6FF710120D1
:1022C800FFF7C6FF80BD000080B483B000AF0F4B9E
:1022D8001B6E0E4A43F0010313660C4B1B6E03F092
:1022E80001037B607B68094B9B6D084A43F0805370
:1022F8009365064B9B6D03F080533B603B6800BFC2
:102308000C37BD465DF8047B704700BF00100240E3
:1023180080B400AFFEE780B400AFFEE780B400AF42
:10232800FEE780B400AFFEE780B400AFFEE780B4FC
:1023380000AF00BFBD465DF8047B704780B400AFB6
:1023480000BFBD465DF8047B704780B400AF00BF96
:10235800BD465DF8047B704780B500AF00F00AFA0F
:1023680000BF80BD80B500AF024800F0F0FC00BFA0
:1023780080BD00BF840A002080B500AF024800F08D
:10238800E6FC00BF80BD00BFCC0A002080B500AFCE
:10239800024802F09BFB00BF80BD00BFFC09002083
:1023A80080B586B000AF7860144A154BD31A7B61AC
:1023B8007B693B61134B1B68002B02D1114B124AFE
:1023C8001A60104B1A687B6813443A699A4207D21C
:1023D80003F0FEFD03460C221A604FF0FF3309E0BC
:1023E800084B1B68FB60074B1A687B681344054A57
:1023F8001360FB6818461837BD4680BD0080012071
:1024080000040000F8090020600C002080B400AF30
:10241800064BD3F88830054A43F47003C2F8883075
:1024280000BFBD465DF8047B704700BF00ED00E0CB
:1024380080B485B000AF786039603B681B685A0A81
:102448000F49A1FB0212D2090E4901FB02F29B1AA5
:10245800FB603B681B685B0A094AA2FB0323DB0994
:10246800BB607B681A68BB681A447B681A603B6863
:10247800FA681A6000BF1437BD465DF8047B7047E0
:10248800834B040000CA9A3B80B500AF144B154A31
:102498001A60134B4FF461425A60114B00229A6044
:1024A8000F4B0022DA600E4B00221A610C4B0C22F3
:1024B8005A610B4B00229A61094B0022DA61084BE2
:1024C80000221A62064B00225A62054802F0E8F917
:1024D8000346002B01D0FEF7C0F800BF80BD00BF47
:1024E800FC0900200044004080B5ACB000AF786023
:1024F80007F19C0300221A605A609A60DA601A6138
:1025080007F1140388220021184603F058FD7B6860
:102518001B684E4A934240F0958002237B6100235A
:102528003B6507F11403184601F0FEFC0346002B37
:1025380001D0FEF792F8464B9B6D454A43F40033B1
:102548009365434B9B6D03F400333B613B69404B00
:10255800DB6C3F4A43F00803D3643D4BDB6C03F06C
:102568000803FB60FB686023C7F89C300223C7F8A8
:10257800A0300023C7F8A4300323C7F8A8300723E6
:10258800C7F8AC3007F19C031946324800F0BEFC8E
:10259800314B324A1A60304B02225A602E4B0022CD
:1025A8009A602D4B0022DA602B4B80221A612A4B4D
:1025B80000225A61284B00229A61274B0022DA61D7
:1025C800254B00221A62244800F02AFA0346002B01
:1025D80001D0FEF742F87B681F4A5A671E4A7B689B
:1025E80093621F4B1F4A1A601D4B02225A601C4BF4
:1025F80010229A601A4B0022DA60194B80221A6165
:10260800174B00225A61164B00229A61144B002284
:10261800DA61134B00221A62114800F001FA0346EE
:10262800002B01D0FEF719F87B680D4A1A670C4A8F
:102638007B68936200220021262000F0BAF9262048
:1026480000F0D3F900BFB037BD4680BD004400405C
:1026580000100240000C0048840A00206C00024070
:10266800CC0A002080000240DFF834D0FFF7CEFE0D
:102678000C480D490D4A002302E0D458C4500433D5
:10268800C4188C42F9D30A4A0A4C002301E01360AB
:102698000432A242FBD303F0A1FCFDF76DFFFEE775
:1026A8000080012000000020800000200065000854
:1026B80080000020600C0020FEE7000080B582B09A
:1026C80000AF0023FB710C4B1B680B4A43F480736B
:1026D8001360032000F062F9002000F00FF80346B1
:1026E800002B02D00123FB7101E0FFF7EDFDFB7920
:1026F80018460837BD4680BD0020024080B584B02A
:1027080000AF78600023FB73174B1B78002B23D096
:10271800164B1A68144B1B7819464FF47A73B3FB9F
:10272800F1F3B2FBF3F3184600F06DF90346002B02
:102738000FD17B680F2B09D8002279684FF0FF3042
:1027480000F037F90A4A7B68136007E00123FB733E
:1027580004E00123FB7301E00123FB73FB7B1846B4
:102768001037BD4680BD00BF2C000020240000208B
:102778002800002080B400AF064B1B781A46064B91
:102788001B681344044A136000BFBD465DF8047B10
:10279800704700BF2C000020140B002080B400AF4D
:1027A800034B1B681846BD465DF8047B704700BFA5
:1027B800140B002080B584B000AF7860FFF7EEFFFF
:1027C800B8607B68FB60FB68B3F1FF3F05D00A4B3C
:1027D8001B781A46FB681344FB6000BFFFF7DEFF57
:1027E8000246BB68D31AFA689A42F7D800BF00BFFE
:1027F8001037BD4680BD00BF2C00002080B485B0D6
:1028080000AF78607B6803F00703FB600C4BDB6864
:10281800BB60BA684FF6FF031340BB60FB681A023F
:10282800BB68134343F0BF6343F40033BB60044AFF
:10283800BB68D36000BF1437BD465DF8047B7047A2
:1028480000ED00E080B400AF044BDB681B0A03F026
:1028580007031846BD465DF8047B704700ED00E0AD
:1028680080B483B000AF0346FB7197F90730002BA3
:102878000BDBFB7903F01F02074997F907305B0967
:10288800012000FA02F241F8232000BF0C37BD46B0
:102898005DF8047B704700BF00E100E080B483B0BE
:1028A80000AF03463960FB7197F90730002B0ADB4C
:1028B8003B68DAB20C4997F907301201D2B20B44DF
:1028C80083F800230AE03B68DAB20849FB7903F091
:1028D8000F03043B1201D2B20B441A7600BF0C3727
:1028E800BD465DF8047B704700E100E000ED00E0C4
:1028F80080B489B000AFF860B9607A60FB6803F013
:102908000703FB61FB69C3F10703042B28BF0423FA
:10291800BB61FB690433062B02D9FB69033B00E06A
:1029280000237B614FF0FF32BB6902FA03F3DA43FD
:10293800BB681A407B699A404FF0FF317B6901FA06
:1029480003F3D9437B680B40134318462437BD462D
:102958005DF8047B7047000080B582B000AF7860F6
:102968007B68013BB3F1807F01D301230FE00A4A62
:102978007B68013B53600F214FF0FF30FFF78EFF5C
:10298800054B00229A60044B07221A600023184660
:102998000837BD4680BD00BF10E000E080B582B0BA
:1029A80000AF78607868FFF729FF00BF0837BD4699
:1029B80080BD80B586B000AF0346B9607A60FB730E
:1029C80000237B61FFF73EFF78617A68B968786910
:1029D800FFF78EFF024697F90F3011461846FFF7AA
:1029E8005DFF00BF1837BD4680BD80B582B000AF1F
:1029F8000346FB7197F907301846FFF731FF00BF10
:102A08000837BD4680BD80B582B000AF7860786871
:102A1800FFF7A2FF034618460837BD4680BD0000F1
:102A280080B485B000AF78607B68002B01D10123AA
:102A380098E07B681B681A464D4B9A420FD87B6812
:102A48001B681A464B4B13444B4AA2FB03231B0932
:102A58009A007B685A647B68484A1A640EE07B686F
:102A68001B681A46464B1344434AA2FB03231B091F
:102A78009A007B685A647B68424A1A647B6802221F
:102A880083F825207B681B681B68FB60FB6823F4C0
:102A9800FF4323F07003FB607B689A687B68DB6800
:102AA8001A437B681B691A437B685B691A437B6816
:102AB8009B691A437B68DB691A437B681B6A13436B
:102AC800FA681343FB607B681B68FA681A607B68C6
:102AD8009B68B3F5804F39D07B681B6C274A9342BB
:102AE8001AD1294B1A687B685B6C03F01C030F2111
:102AF80001FA03F3DB43244913400B60224B1A68A5
:102B08007B6859687B685B6C03F01C0301FA03F36C
:102B18001D4913430B6019E01C4B1A687B685B6CFA
:102B280003F01C030F2101FA03F3DB431749134099
:102B38000B60164B1A687B6859687B685B6C03F0FE
:102B48001C0301FA03F3114913430B607B6800224D
:102B5800DA637B68012283F825207B68002283F8EA
:102B68002420002318461437BD465DF8047B7047BF
:102B780007040240F8FFFDBFCDCCCCCC00000240DA
:102B8800F8FBFDBF00040240A8000240A804024070
:102B980080B586B000AFF860B9607A603B6000230A
:102BA800FB75FB6893F82430012B01D102234BE01D
:102BB800FB68012283F82420FB6893F82530DBB2F8
:102BC800012B3AD1FB68022283F82520FB680022FA
:102BD800DA63FB681B681A68FB681B6822F001024D
:102BE8001A603B687A68B968F86800F05FF9FB68B2
:102BF8001B6B002B08D0FB681B681A68FB681B68F6
:102C080042F00E021A600FE0FB681B681A68FB6846
:102C18001B6822F004021A60FB681B681A68FB68CC
:102C28001B6842F00A021A60FB681B681A68FB6896
:102C38001B6842F001021A6005E0FB68002283F875
:102C480024200223FB75FB7D18461837BD4680BD3E
:102C580080B485B000AF78600023FB737B6893F87D
:102C68002530DBB2022B08D07B680422DA637B684C
:102C7800002283F82420012322E07B681B681A685D
:102C88007B681B6822F00E021A607B681B681A6852
:102C98007B681B6822F001021A607B685B6C03F09A
:102CA8001C027B681B6C012101FA02F25A607B68E6
:102CB800012283F825207B68002283F82420FB7BEF
:102CC80018461437BD465DF8047B704780B584B05C
:102CD80000AF78600023FB737B6893F82530DBB284
:102CE800022B05D07B680422DA630123FB7329E0F9
:102CF8007B681B681A687B681B6822F00E021A60E2
:102D08007B681B681A687B681B6822F001021A60DE
:102D18007B685B6C03F01C027B681B6C012101FA69
:102D280002F25A607B68012283F825207B68002222
:102D380083F824207B689B6B002B03D07B689B6BFC
:102D480078689847FB7B18461037BD4680BD80B52C
:102D580084B000AF78607B681B6C1B68FB607B6885
:102D68001B681B68BB607B685B6C03F01C03042258
:102D78009A40FB681340002B26D0BB6803F004037D
:102D8800002B21D07B681B681B6803F02003002BF5
:102D980007D17B681B681A687B681B6822F00402ED
:102DA8001A607B685B6C03F01C027B681B6C042157
:102DB80001FA02F25A607B681B6B002B71D07B68AA
:102DC8001B6B786898476CE07B685B6C03F01C03AE
:102DD80002229A40FB681340002B2ED0BB6803F0F8
:102DE8000203002B29D07B681B681B6803F02003B3
:102DF800002B0BD17B681B681A687B681B6822F064
:102E08000A021A607B68012283F825207B685B6CC4
:102E180003F01C027B681B6C022101FA02F25A6063
:102E28007B68002283F824207B68DB6A002B38D07B
:102E38007B68DB6A7868984733E07B685B6C03F0F3
:102E48001C0308229A40FB681340002B2AD0BB6859
:102E580003F00803002B25D07B681B681A687B6881
:102E68001B6822F00E021A607B685B6C03F01C0280
:102E78007B681B6C012101FA02F25A607B6801220F
:102E8800DA637B68012283F825207B68002283F8B7
:102E980024207B685B6B002B04D07B685B6B7868B5
:102EA800984700BF00BF1037BD4680BD80B485B0CD
:102EB80000AFF860B9607A603B60FB685B6C03F058
:102EC8001C02FB681B6C012101FA02F25A60FB68C4
:102ED8001B683A685A60FB689B68102B08D1FB682E
:102EE8001B687A689A60FB681B68BA68DA6007E052
:102EF800FB681B68BA689A60FB681B687A68DA60C6
:102F080000BF1437BD465DF8047B704780B487B0B6
:102F180000AF7860396000237B617FE13B681A6805
:102F280001217B6901FA03F31340FB60FB68002B66
:102F380000F071813B685B6803F00303012B05D047
:102F48003B685B6803F00303022B30D17B689B6806
:102F58003B617B695B00032202FA03F3DB433A69B6
:102F680013403B613B68DA687B695B0002FA03F354
:102F78003A6913433B617B683A699A607B685B688E
:102F88003B6101227B6902FA03F3DB433A69134090
:102F98003B613B685B681B0903F001027B6902FA2D
:102FA80003F33A6913433B617B683A695A603B68AB
:102FB8005B6803F00303032B18D17B68DB6A3B6172
:102FC80001227B6902FA03F3DB433A6913403B6150
:102FD8003B685B68DB0803F001027B6902FA03F3D4
:102FE8003A6913433B617B683A69DA623B685B681C
:102FF80003F00303032B17D07B68DB683B617B6915
:103008005B00032202FA03F3DB433A6913403B6196
:103018003B689A687B695B0002FA03F33A691343D9
:103028003B617B683A69DA603B685B6803F00303DD
:10303800022B23D17B69DA087B68083253F82230E7
:103048003B617B6903F007039B000F2202FA03F33D
:10305800DB433A6913403B613B681A697B6903F0BB
:1030680007039B0002FA03F33A6913433B617B6948
:10307800DA087B680832396943F822107B681B68D4
:103088003B617B695B00032202FA03F3DB433A6985
:1030980013403B613B685B6803F003027B695B009C
:1030A80002FA03F33A6913433B617B683A691A6091
:1030B8003B685B6803F44033002B00F0AC805F4B47
:1030C8001B6E5E4A43F0010313665C4B1B6E03F0F4
:1030D8000103BB60BB685A4A7B699B08023352F8FC
:1030E80023303B617B6903F003039B000F2202FA44
:1030F80003F3DB433A6913403B617B68B3F1904FBC
:1031080025D07B684F4A93421FD07B684E4A934232
:1031180019D07B684D4A934213D07B684C4A93423E
:103128000DD07B684B4A934207D07B684A4A93424A
:1031380001D106230CE007230AE0052308E0042355
:1031480006E0032304E0022302E0012300E0002359
:103158007A6902F00302920093403A6913433B6193
:1031680037497B699B0802333A6941F823203B4B76
:103178009B683B61FB68DB433A6913403B613B68F2
:103188005B6803F48013002B03D03A69FB68134390
:103198003B61324A3B699360304BDB683B61FB68BB
:1031A800DB433A6913403B613B685B6803F40013F7
:1031B800002B03D03A69FB6813433B61274A3B69FC
:1031C800D360264B5B683B61FB68DB433A6913407D
:1031D8003B613B685B6803F40033002B03D03A691A
:1031E800FB6813433B611D4A3B6953601B4B1B68DB
:1031F8003B61FB68DB433A6913403B613B685B68B2
:1032080003F48033002B03D03A69FB6813433B6116
:10321800124A3B6913607B6901337B613B681A681A
:103228007B6922FA03F3002B7FF478AE00BF00BF5E
:103238001C37BD465DF8047B704700BF0010024094
:10324800000001400004004800080048000C004845
:10325800001000480014004800180048000401400D
:1032680080B400AF044B1B6803F4C0631846BD4626
:103278005DF8047B704700BF0070004080B485B0E3
:1032880000AF78607B68B3F5007F30D1234B1B68B3
:1032980003F4C063B3F5007F38D0204B1B6823F4D8
:1032A800C0631E4A43F4007313601D4B1B6832222F
:1032B80002FB03F31B4AA2FB03239B0C0133FB60B5
:1032C80002E0FB68013BFB60144B5B6903F480631D
:1032D800B3F5806F02D1FB68002BF2D10F4B5B690D
:1032E80003F48063B3F5806F10D103230FE00B4B19
:1032F8001B6803F4C063B3F5806F07D0074B1B68E6
:1033080023F4C063054A43F480631360002318461E
:103318001437BD465DF8047B704700BF007000405D
:103328002400002083DE1B4380B588B000AF78609E
:103338007B68002B01D10123CAE3974B9B6803F0FC
:103348000C03BB61944BDB6803F003037B617B6870
:103358001B6803F01003002B00F0E480BB69002B0E
:1033680007D0BB690C2B40F08B807B69012B40F0A8
:103378008780894B1B6803F00203002B05D07B680C
:103388009B69002B01D10123A2E37B681A6A824B57
:103398001B6803F00803002B04D07F4B1B6803F065
:1033A800F00305E07C4BD3F894301B0903F0F003DD
:1033B800934223D27B681B6A184600F055FD0346EA
:1033C800002B01D0012383E3734B1B68724A43F03F
:1033D80008031360704B1B6823F0F0027B681B6ABC
:1033E8006D4913430B606C4B5B6823F47F427B6829
:1033F800DB691B02684913434B6025E0664B1B6879
:10340800654A43F008031360634B1B6823F0F0021E
:103418007B681B6A604913430B605F4B5B6823F44E
:103428007F427B68DB691B025B4913434B60BB69C6
:10343800002B09D17B681B6A184600F015FD03466E
:10344800002B01D0012343E300F04AFC0246524B13
:103458009B681B0903F00F035049CB5C03F01F0363
:1034680022FA03F34E4A13604E4B1B681846FFF7C7
:1034780045F90346FB73FB7B002B52D0FB7B27E30C
:103488007B689B69002B32D0434B1B68424A43F050
:1034980001031360FFF782F9386108E0FFF77EF94E
:1034A80002463B69D31A022B01D9032310E33A4B96
:1034B8001B6803F00203002BF0D0374B1B68364A19
:1034C80043F008031360344B1B6823F0F0027B6859
:1034D8001B6A314913430B602F4B5B6823F47F420F
:1034E8007B68DB691B022C4913434B601AE02A4BAB
:1034F8001B68294A23F001031360FFF74FF938616D
:1035080008E0FFF74BF902463B69D31A022B01D9B1
:103518000323DDE2204B1B6803F00203002BF0D1EC
:1035280000E000BF7B681B6803F00103002B74D028
:10353800BB69082B05D0BB690C2B0ED17B69032B0B
:103548000BD1154B1B6803F40033002B64D07B6848
:103558005B68002B60D10123BAE27B685B68B3F536
:10356800803F06D10C4B1B680B4A43F48033136031
:1035780026E07B685B68B3F5A02F15D1064B1B6866
:10358800054A43F480231360034B1B68024A43F443
:103598008033136014E000BF00100240A4640008E8
:1035A8002400002028000020A04B1B689F4A23F419
:1035B800803313609D4B1B689C4A23F4802313605F
:1035C8007B685B68002B13D0FFF7E8F8386108E0E8
:1035D800FFF7E4F802463B69D31A642B01D90323A9
:1035E80076E2924B1B6803F40033002BF0D014E012
:1035F800FFF7D4F8386108E0FFF7D0F802463B69D6
:10360800D31A642B01D9032362E2884B1B6803F4A5
:103618000033002BF0D100E000BF7B681B6803F08B
:103628000203002B60D0BB69042B05D0BB690C2BAF
:1036380019D17B69022B16D17C4B1B6803F480637C
:10364800002B05D07B68DB68002B01D101233FE20A
:10365800764B5B6823F0F8527B681B691B0673493D
:1036680013434B6040E07B68DB68002B23D06F4B33
:103678001B686E4A43F480731360FFF78FF8386154
:1036880008E0FFF78BF802463B69D31A022B01D9F1
:1036980003231DE2654B1B6803F48063002BF0D005
:1036A800624B5B6823F0F8527B681B691B065F4915
:1036B80013434B6018E05D4B1B685C4A23F480732E
:1036C8001360FFF76BF8386108E0FFF767F8024608
:1036D8003B69D31A022B01D90323F9E1534B1B6829
:1036E80003F48063002BF0D17B681B6803F00803A8
:1036F800002B3CD07B685B69002B1CD04B4BD3F86C
:1037080094304A4A43F00103C2F89430FFF746F870
:10371800386108E0FFF742F802463B69D31A022BEA
:1037280001D90323D4E1414BD3F8943003F00203C9
:10373800002BEFD01BE03D4BD3F894303B4A23F0ED
:103748000103C2F89430FFF729F8386108E0FFF761
:1037580025F802463B69D31A022B01D90323B7E1A6
:10376800324BD3F8943003F00203002BEFD17B687F
:103778001B6803F00403002B00F0A6800023FB77EE
:103788002A4B9B6D03F08053002B0DD1274B9B6D6B
:10379800264A43F080539365244B9B6D03F0805376
:1037A800BB60BB680123FB77214B1B6803F4807364
:1037B800002B18D11E4B1B681D4A43F480731360FD
:1037C800FEF7ECFF386108E0FEF7E8FF02463B69C8
:1037D800D31A022B01D903237AE1154B1B6803F492
:1037E8008073002BF0D07B689B68012B08D10F4BAE
:1037F800D3F890300D4A43F00103C2F8903029E025
:103808007B689B68052B15D1084BD3F89030074A85
:1038180043F00403C2F89030044BD3F89030034AC5
:1038280043F00103C2F8903014E000BF00100240DA
:10383800007000409C4BD3F890309B4A23F0010362
:10384800C2F89030984BD3F89030974A23F004038D
:10385800C2F890307B689B68002B16D0FEF79EFF5D
:1038680038610AE0FEF79AFF02463B69D31A41F233
:103878008832934201D903232AE18B4BD3F8903045
:1038880003F00203002BEDD015E0FEF787FF386147
:103898000AE0FEF783FF02463B69D31A41F28832F9
:1038A800934201D9032313E17F4BD3F8903003F0FF
:1038B8000203002BEDD1FB7F012B05D17A4B9B6DC9
:1038C800794A23F0805393657B689B6A002B00F04C
:1038D800FE807B689B6A022B40F0D080724BDB68CD
:1038E8007B617B6903F003027B68DB6A9A4230D113
:1038F8007B6903F070027B681B6B013B1B019A42DA
:1039080027D17B6903F4FE427B685B6B1B029A42FA
:103918001FD17B6903F400337A68926B072A14BFBE
:1039280001220022D2B2934213D17B6903F4C00270
:103938007B68DB6B5B08013B5B059A4209D17B69BD
:1039480003F0C0627B681B6C5B08013B5B069A4214
:103958006ED0BB690C2B69D0534B1B6803F0806396
:10396800002B05D1504B1B6803F08053002B01D06E
:103978000123ADE04C4B1B684B4A23F08073136066
:10398800FEF70CFF386108E0FEF708FF02463B69C6
:10399800D31A022B01D903239AE0434B1B6803F087
:1039A8000073002BF0D1404BDA68404B13407A6823
:1039B800D16A7A68126B013A120111437A68526B24
:1039C800120211437A68D26B5208013A5205114328
:1039D8007A68126C5208013A520611437A68926B5F
:1039E800120952040A4330491343CB602E4B1B681B
:1039F8002D4A43F0807313602B4BDB682A4A43F04F
:103A08008073D360FEF7CAFE386108E0FEF7C6FE91
:103A180002463B69D31A022B01D9032358E0224BF3
:103A28001B6803F00073002BF0D050E001234FE037
:103A38001D4B1B6803F00073002B48D11A4B1B6801
:103A4800194A43F080731360174BDB68164A43F03A
:103A58008073D360FEF7A2FE386108E0FEF79EFE91
:103A680002463B69D31A022B01D9032330E00E4BDF
:103A78001B6803F00073002BF0D028E0BB690C2B07
:103A880023D0094B1B68084A23F080731360FEF7A4
:103A980085FE38610CE0FEF781FE02463B69D31AC9
:103AA800022B05D9032313E0001002408C809DF9F6
:103AB800094B1B6803F00073002BECD1064BDA6846
:103AC8000549064B1340CB6001E0012300E00023C9
:103AD80018462037BD4680BD00100240FCFFEEFEB0
:103AE80080B584B000AF786039607B68002B01D165
:103AF8000123E7E0754B1B6803F007033A689A4215
:103B080010D9724B1B6823F0070270493B681343B6
:103B18000B606E4B1B6803F007033A689A4201D0AA
:103B28000123CFE07B681B6803F00203002B10D051
:103B38007B689A68664B9B6803F0F0039A4208D941
:103B4800634B9B6823F0F0027B689B6860491343D2
:103B58008B607B681B6803F00103002B4CD07B68EB
:103B68005B68032B07D15A4B1B6803F00073002BCB
:103B780021D10123A6E07B685B68022B07D1544B57
:103B88001B6803F40033002B15D101239AE07B68EE
:103B98005B68002B07D14E4B1B6803F00203002B18
:103BA80009D101238EE04A4B1B6803F48063002B84
:103BB80001D1012386E0464B9B6823F003027B6812
:103BC8005B68434913438B60FEF7E8FDF8600AE041
:103BD800FEF7E4FD0246FB68D31A41F288329342AD
:103BE80001D903236EE03A4B9B6803F00C027B6813
:103BF8005B689B009A42EBD17B681B6803F0020369
:103C0800002B10D07B689A68314B9B6803F0F00357
:103C18009A4208D22E4B9B6823F0F0027B689B687F
:103C28002B4913438B60294B1B6803F007033A6841
:103C38009A4210D2254B1B6823F0070223493B68A0
:103C480013430B60214B1B6803F007033A689A4241
:103C580001D0012336E07B681B6803F00403002BC6
:103C680008D01B4B9B6823F4E0627B68DB6818492B
:103C780013438B607B681B6803F00803002B09D093
:103C8800134B9B6823F460527B681B69DB00104967
:103C980013438B6000F024F802460D4B9B681B0908
:103CA80003F00F030B49CB5C03F01F0322FA03F365
:103CB800094A1360094B1B681846FEF71FFD0346A7
:103CC800FB72FB7A18461037BD4680BD00200240C3
:103CD80000100240A46400082400002028000020EE
:103CE80080B489B000AF0023FB610023BB613E4B69
:103CF8009B6803F00C033B613B4BDB6803F0030359
:103D0800FB603B69002B05D03B690C2B21D1FB687C
:103D1800012B1ED1344B1B6803F00803002B07D17D
:103D2800314BD3F894301B0A03F00F03FB6105E015
:103D38002D4B1B681B0903F00F03FB612B4AFB6922
:103D480052F82330FB613B69002B0DD1FB69BB6145
:103D58000AE03B69042B02D1254BBB6104E03B69B7
:103D6800082B01D1234BBB613B690C2B34D11E4B73
:103D7800DB6803F00303BB60BB68022B03D0BB689E
:103D8800032B03D005E01A4B7B6105E0194B7B61DF
:103D980002E0FB697B6100BF134BDB681B0903F082
:103DA800070301337B60104BDB681B0A03F07F03BA
:103DB8007A6903FB02F27B68B2FBF3F37B610A4B7F
:103DC800DB685B0E03F0030301335B003B607A6939
:103DD8003B68B2FBF3F3BB61BB6918462437BD46A9
:103DE8005DF8047B704700BF00100240BC64000807
:103DF8000024F40000127A0080B400AF034B1B6863
:103E08001846BD465DF8047B704700BF24000020BB
:103E180080B500AFFFF7F0FF0246064B9B681B0A10
:103E280003F007030449CB5C03F01F0322FA03F3F2
:103E3800184680BD00100240B464000880B500AF89
:103E4800FFF7DAFF0246064B9B68DB0A03F007031D
:103E58000449CB5C03F01F0322FA03F3184680BD24
:103E680000100240B464000880B586B000AF7860E6
:103E780000233B612A4B9B6D03F08053002B03D03A
:103E8800FFF7EEF9786114E0254B9B6D244A43F067
:103E980080539365224B9B6D03F08053FB60FB6856
:103EA800FFF7DEF978611E4B9B6D1D4A23F08053A6
:103EB80093657B69B3F5007F0BD17B68802B19D99B
:103EC8007B68A02B02D902233B6113E001233B61ED
:103ED80010E07B68802B02D903233B610AE07B68F2
:103EE800802B02D102233B6104E07B68702B01D157
:103EF80001233B610B4B1B6823F0070209493B690F
:103F080013430B60074B1B6803F007033A699A4297
:103F180001D0012300E0002318461837BD4680BDB4
:103F2800001002400020024080B586B000AF7860E3
:103F38000023FB740023BB747B681B6803F40063D5
:103F4800002B41D07B685B6EB3F5400F2AD0B3F5E8
:103F5800400F24D8B3F5000F08D0B3F5000F1ED8D2
:103F6800002B0AD0B3F5800F10D018E0864BDB6821
:103F7800854A43F48033D36015E07B68043300211D
:103F8800184600F0BBFA0346FB740CE07B6820334C
:103F98000021184600F0A6FB0346FB7403E001234A
:103FA800FB7400E000BFFB7C002B0BD1764BD3F8F1
:103FB800883023F440027B685B6E73491343C1F871
:103FC800883001E0FB7CBB747B681B6803F480537A
:103FD800002B41D07B689B6EB3F1407F2AD0B3F1B0
:103FE800407F24D8B3F1007F08D0B3F1007F1ED8FA
:103FF800002B0AD0B3F1807F10D018E0624BDB6849
:10400800614A43F48033D36015E07B6804330021B0
:10401800184600F073FA0346FB740CE07B68203303
:104028000021184600F05EFB0346FB7403E0012301
:10403800FB7400E000BFFB7C002B0BD1524BD3F884
:10404800883023F040727B689B6E4F491343C1F858
:10405800883001E0FB7CBB747B681B6803F4003389
:10406800002B00F0A08000237B74474B9B6D03F06E
:104078008053002B01D1012300E00023002B0DD039
:10408800414B9B6D404A43F0805393653E4B9B6D7B
:1040980003F08053BB60BB6801237B743B4B1B68F8
:1040A8003A4A43F480731360FEF778FBF86009E03E
:1040B800FEF774FB0246FB68D31A022B02D90323CE
:1040C800FB7405E0314B1B6803F48073002BEFD0C1
:1040D800FB7C002B5CD12C4BD3F8903003F440735D
:1040E8007B617B69002B1FD07B68D3F884307A69A9
:1040F8009A4219D0244BD3F8903023F440737B6153
:10410800214BD3F89030204A43F48033C2F89030E2
:104118001D4BD3F890301C4A23F48033C2F89030FA
:10412800194A7B69C2F890307B6903F00103002BC0
:1041380016D0FEF733FBF8600BE0FEF72FFB0246C4
:10414800FB68D31A41F28832934202D90323FB74E5
:1041580006E00D4BD3F8903003F00203002BECD0AF
:10416800FB7C002B0CD1084BD3F8903023F4407221
:104178007B68D3F8843004491343C1F8903009E0D0
:10418800FB7CBB7406E000BF0010024000700040DA
:10419800FB7CBB747B7C012B05D19E4B9B6D9D4AA0
:1041A80023F0805393657B681B6803F00103002BA1
:1041B8000AD0984BD3F8883023F003027B689B6BB6
:1041C80094491343C1F888307B681B6803F00203E5
:1041D800002B0AD08F4BD3F8883023F00C027B6871
:1041E800DB6B8C491343C1F888307B681B6803F08C
:1041F8000403002B0AD0874BD3F8883023F0300211
:104208007B681B6C83491343C1F888307B681B6843
:1042180003F00803002B0AD07E4BD3F8883023F034
:10422800C0027B685B6C7B491343C1F888307B68AC
:104238001B6803F01003002B0AD0764BD3F88830A4
:1042480023F440727B689B6C72491343C1F8883031
:104258007B681B6803F02003002B0AD06D4BD3F852
:10426800883023F440627B68DB6C6A491343C1F8E9
:1042780088307B681B6803F40073002B0AD0654BF9
:10428800D3F8883023F440227B68DB6D61491343FF
:10429800C1F888307B681B6803F48063002B0AD060
:1042A8005C4BD3F8883023F440127B681B6E594965
:1042B8001343C1F888307B681B6803F04003002B68
:1042C8000AD0544BD3F8883023F440527B681B6DD6
:1042D80050491343C1F888307B681B6803F080039A
:1042E800002B0AD04B4BD3F8883023F440427B682C
:1042F8005B6D48491343C1F888307B681B6803F439
:104308008073002B0AD0434BD3F8883023F4403213
:104318007B689B6D3F491343C1F888307B681B68F5
:1043280003F40053002B28D03A4BD3F8883023F0FD
:1043380040627B68DB6E37491343C1F888307B687D
:10434800DB6EB3F1006F06D1324BDB68314A43F4C0
:104358008013D36011E07B68DB6EB3F1806F0CD102
:104368007B6804330121184600F0C8F80346FB7443
:10437800FB7C002B01D0FB7CBB747B681B6803F4BF
:104388000023002B28D0234BD3F8883023F0406239
:104398007B681B6F1F491343C1F888307B681B6F0C
:1043A800B3F1006F06D11B4BDB681A4A43F4801344
:1043B800D36011E07B681B6FB3F1806F0CD17B6811
:1043C80004330121184600F099F80346FB74FB7C7E
:1043D800002B01D0FB7CBB747B681B6803F4802333
:1043E800002B2BD00B4BD3F8883023F040627B682E
:1043F8005B6F08491343C1F888307B685B6FB3F182
:10440800006F09D1034BDB68024A43F48013D36081
:1044180014E000BF001002407B685B6FB3F1806F4F
:104428000CD17B6804330121184600F067F8034675
:10443800FB74FB7C002B01D0FB7CBB747B681B6886
:1044480003F48043002B2FD02B4BD3F8883023F074
:1044580040527B689B6F28491343C1F888307B68BA
:104468009B6FB3F1805F0DD17B680433022118463E
:1044780000F044F80346FB74FB7C002B14D0FB7C53
:10448800BB7411E07B689B6FB3F1005F0CD17B6854
:1044980020330221184600F025F90346FB74FB7C03
:1044A800002B01D0FB7CBB747B681B6803F40043C2
:1044B800002B0AD0104BD3F8883023F080427B6859
:1044C800DB6F0D491343C1F888307B681B6803F420
:1044D8008033002B0BD0084BD3F8883023F00042F0
:1044E8007B68D3F8803004491343C1F88830BB7C1B
:1044F80018461837BD4680BD0010024080B584B00C
:1045080000AF786039600023FB73754BDB6803F0FC
:104518000303002B18D0724BDB6803F003027B689F
:104528001B689A420DD17B681B68002B09D06C4B25
:10453800DB681B0903F007035A1C7B685B689A4217
:1045480047D00123FB7344E07B681B68032B18D01A
:10455800032B25D8012B02D0022B09D020E0604B79
:104568001B6803F00203002B1DD10123FB731AE023
:104578005B4B1B6803F48063002B16D10123FB738C
:1045880013E0574B1B6803F40033002B0FD1544B37
:104598001B6803F48023002B09D10123FB7306E079
:1045A8000123FB7304E000BF02E000BF00E000BF8E
:1045B800FB7B002B0DD14A4BDB6823F073027B6831
:1045C80019687B685B68013B1B010B434449134333
:1045D800CB60FB7B002B7DD1414B1B68404A23F00D
:1045E80080631360FEF7DAF8B86009E0FEF7D6F8E2
:1045F8000246BB68D31A022B02D90323FB7305E0DA
:10460800374B1B6803F00063002BEFD1FB7B002BBB
:1046180060D13B68002B11D1314B1B6923F41F3348
:1046280023F440737A68926811027A68D268120992
:1046380052040A432A4913430B6127E03B68012BC4
:1046480012D1274B1B6923F4C00323F4FE437A6875
:10465800926811027A6812695208013A52050A43AF
:104668001F4913430B6111E01D4B1B6923F0C06305
:1046780023F4FE437A68926811027A6852695208F4
:10468800013A52060A43164913430B61144B1B683F
:10469800134A43F080631360FEF780F8B86009E0BE
:1046A800FEF77CF80246BB68D31A022B02D9032313
:1046B800FB7305E00A4B1B6803F00063002BEFD087
:1046C800FB7B002B06D1064B1A697B689B69044962
:1046D80013430B61FB7B18461037BD4680BD00BFF6
:1046E8000010024080B584B000AF786039600023C4
:1046F800FB736A4BDB6803F00303002B18D0674B8E
:10470800DB6803F003027B681B689A420DD17B6863
:104718001B68002B09D0614BDB681B0903F00703FA
:104728005A1C7B685B689A4247D00123FB7344E0BC
:104738007B681B68032B18D0032B25D8012B02D0CC
:10474800022B09D020E0554B1B6803F00203002B15
:104758001DD10123FB731AE0504B1B6803F48063DF
:10476800002B16D10123FB7313E04C4B1B6803F499
:104778000033002B0FD1494B1B6803F48023002B17
:1047880009D10123FB7306E00123FB7304E000BF9A
:1047980002E000BF00E000BFFB7B002B0DD13F4BC8
:1047A800DB6823F073027B6819687B685B68013BF0
:1047B8001B010B4339491343CB60FB7B002B67D1AB
:1047C800364B1B68354A23F080531360FDF7E6FF2C
:1047D800B86009E0FDF7E2FF0246BB68D31A022B76
:1047E80002D90323FB7305E02C4B1B6803F000532D
:1047F800002BEFD1FB7B002B4AD13B68002B11D15A
:10480800264B5B6923F41F3323F440737A6892685C
:1048180011027A68D268120952040A431F491343E5
:104828004B6111E01D4B5B6923F0C06323F4FE4329
:104838007A68926811027A6812695208013A520637
:104848000A43164913434B61144B1B68134A43F040
:1048580080531360FDF7A2FFB86009E0FDF79EFFE3
:104868000246BB68D31A022B02D90323FB7305E067
:104878000A4B1B6803F00053002BEFD0FB7B002B87
:1048880006D1064B5A697B685B69044913434B613F
:10489800FB7B18461037BD4680BD00BF00100240A4
:1048A80080B582B000AF78607B68002B01D101230E
:1048B80040E07B68DB6F002B06D17B68002283F821
:1048C80078207868FDF710FE7B682422DA677B6819
:1048D8001B681A687B681B6822F001021A607B68F3
:1048E8005B6A002B02D0786800F0BCFE786800F0A4
:1048F80001FC0346012B01D101231BE07B681B68E7
:104908005A687B681B6822F490425A607B681B686F
:104918009A687B681B6822F02A029A607B681B6889
:104928001A687B681B6842F001021A60786800F018
:104938003BFF034618460837BD4680BD80B58AB0A0
:1049480000AFF860B9601346FB80FB68DB6F202B73
:1049580065D1BB68002B02D0FB88002B01D1012355
:104968005EE0FB68BA68DA64FB68FA88A3F850204E
:10497800FB68FA88A3F85220FB680022C3F8842059
:10498800FB682122DA67FB681B6F002B27D0FB68C6
:104998001B6F254ADA62FB681B6F244A1A63FB689F
:1049A8001B6F234A5A63FB681B6F00229A63FB68DC
:1049B800186FFB68DB6C1946FB681B6828331A46BE
:1049C800FB88FEF7E5F80346002B08D0FB681022A9
:1049D800C3F88420FB682022DA67012320E0FB6803
:1049E8001B6840221A62FB681B6808337B617B697D
:1049F80053E8003F3B613B6943F080037B62FB68FF
:104A08001B6808337A6A3A62FB61F9693A6A41E8D5
:104A18000023BB61BB69002BE5D1002300E0022322
:104A280018462837BD4680BD255C0008BF5C0008D5
:104A3800455E000880B58AB000AFF860B9601346DB
:104A4800FB80FB68D3F88030202B37D1BB68002B64
:104A580002D0FB88002B01D1012330E0FB68002243
:104A68001A66FB681B68184A93421FD0FB681B68CC
:104A78005B6803F40003002B18D0FB681B687B619C
:104A88007B6953E8003F3B613B6943F080637B628D
:104A9800FB681B681A467B6A3B62FA61F9693A6AE5
:104AA80041E80023BB61BB69002BE6D1FB881A46AD
:104AB800B968F86800F088FF034600E0022318464A
:104AC8002837BD4680BD00BF0080004080B5BAB021
:104AD80000AF78607B681B68DB69C7F8E4307B68E7
:104AE8001B681B68C7F8E0307B681B689B68C7F8C1
:104AF800DC30D7F8E42040F60F031340C7F8D8306D
:104B0800D7F8D830002B15D1D7F8E43003F02003BC
:104B1800002B0FD0D7F8E03003F02003002B09D08A
:104B28007B689B6E002B00F0AE827B689B6E78687A
:104B38009847A8E2D7F8D830002B00F01781D7F8AB
:104B4800DC3003F00103002B06D1D7F8E020854BB9
:104B58001340002B00F00A81D7F8E43003F001037A
:104B6800002B11D0D7F8E03003F48073002B0BD062
:104B78007B681B6801221A627B68D3F8843043F093
:104B880001027B68C3F88420D7F8E43003F00203FD
:104B9800002B11D0D7F8DC3003F00103002B0BD029
:104BA8007B681B6802221A627B68D3F8843043F062
:104BB80004027B68C3F88420D7F8E43003F00403C8
:104BC800002B11D0D7F8DC3003F00103002B0BD0F9
:104BD8007B681B6804221A627B68D3F8843043F030
:104BE80002027B68C3F88420D7F8E43003F0080396
:104BF800002B17D0D7F8E03003F02003002B05D1A5
:104C0800D7F8DC3003F00103002B0BD07B681B685E
:104C180008221A627B68D3F8843043F008027B6864
:104C2800C3F88420D7F8E43003F40063002B12D0D3
:104C3800D7F8E03003F08063002B0CD07B681B684A
:104C48004FF400621A627B68D3F8843043F0200284
:104C58007B68C3F884207B68D3F88430002B00F08D
:104C68001482D7F8E43003F02003002B0DD0D7F8D6
:104C7800E03003F02003002B07D07B689B6E002BED
:104C880003D07B689B6E786898477B68D3F884303C
:104C9800C7F8D4307B681B689B6803F04003402B3F
:104CA80005D0D7F8D43003F02803002B4FD078680C
:104CB80000F050FF7B681B689B6803F04003402BA3
:104CC80041D17B681B680833C7F89C30D7F89C3003
:104CD80053E8003FC7F89830D7F8983023F04003DE
:104CE800C7F8D0307B681B680833D7F8D020C7F8DE
:104CF800A820C7F8A430D7F8A410D7F8A82041E80E
:104D08000023C7F8A030D7F8A030002BD9D17B6892
:104D18005B6F002B13D07B685B6F134A9A637B68C9
:104D28005B6F1846FDF7D2FF0346002B17D07B6850
:104D38005B6F9B6B7A68526F104698470FE07868F4
:104D480000F0C2F90BE0786800F0BEF907E0786877
:104D580000F0BAF97B680022C3F8842095E100BF0F
:104D680093E100BF20010004C35E00087B681B6E4E
:104D7800012B40F04E81D7F8E43003F01003002BEC
:104D880000F04781D7F8E03003F01003002B00F063
:104D980040817B681B6810221A627B681B689B68CD
:104DA80003F04003402B40F0B8807B685B6F1B68C2
:104DB8005B68A7F8BE30B7F8BE30002B00F06781FB
:104DC8007B68B3F85830B7F8BE209A4280F05F810C
:104DD8007B68B7F8BE20A3F85A207B685B6F1B6816
:104DE8001B6803F02003002B40F086807B681B685B
:104DF800C7F88830D7F8883053E8003FC7F88430C0
:104E0800D7F8843023F48073C7F8B8307B681B6800
:104E18001A46D7F8B830C7F89430C7F89020D7F8B2
:104E28009010D7F8942041E80023C7F88C30D7F8C1
:104E38008C30002BDAD17B681B6808337B677B6F6B
:104E480053E8003F3B673B6F23F00103C7F8B430DA
:104E58007B681B680833D7F8B420C7F88020FB6745
:104E6800F96FD7F8802041E80023BB67BB6F002BA0
:104E7800E1D17B681B6808333B663B6E53E8003F13
:104E8800FB65FB6D23F04003C7F8B0307B681B68F7
:104E98000833D7F8B020FA66BB66B96EFA6E41E8F7
:104EA80000237B667B6E002BE3D17B682022C3F84E
:104EB80080207B6800221A667B681B68FB64FB6C99
:104EC80053E8003FBB64BB6C23F01003C7F8AC3059
:104ED8007B681B681A46D7F8AC30BB657A65796D74
:104EE800BA6D41E800233B653B6D002BE4D17B683C
:104EF8005B6F1846FDF7ACFE7B6802225A667B683A
:104F0800B3F858207B68B3F85A309BB2D31A9BB2D7
:104F18001946786800F0E2F8B9E07B68B3F85820E1
:104F28007B68B3F85A309BB2D31AA7F8CE307B68A7
:104F3800B3F85A309BB2002B00F0AB80B7F8CE30F4
:104F4800002B00F0A6807B681B68BB63BB6B53E833
:104F5800003F7B637B6B23F49073C7F8C8307B6892
:104F68001B681A46D7F8C8307B643A64396C7A6C87
:104F780041E80023FB63FB6B002BE4D17B681B68D3
:104F880008337B627B6A53E8003F3B623B6A23F04D
:104F98000103C7F8C4307B681B680833D7F8C420FE
:104FA8003A63FB62F96A3A6B41E80023BB62BB6A69
:104FB800002BE3D17B682022C3F880207B68002285
:104FC8001A667B6800229A667B681B683B613B69AE
:104FD80053E8003FFB60FB6823F01003C7F8C030BC
:104FE8007B681B681A46D7F8C030FB61BA61B9699B
:104FF800FA6941E800237B617B69002BE4D17B6877
:1050080002225A66B7F8CE301946786800F066F87A
:105018003FE0D7F8E43003F48013002B0ED0D7F824
:10502800DC3003F48003002B08D07B681B684FF446
:1050380080121A62786800F080FF2DE0D7F8E4301B
:1050480003F08003002B0ED0D7F8E03003F0800384
:10505800002B08D07B68DB6E002B1CD07B68DB6ED6
:105068007868984717E0D7F8E43003F04003002B3E
:1050780012D0D7F8E03003F04003002B0CD078684A
:1050880000F031FF08E000BF06E000BF04E000BF09
:1050980002E000BF00E000BFE837BD4680BD00BFAA
:1050A80080B483B000AF786000BF0C37BD465DF8B0
:1050B800047B704780B483B000AF786000BF0C37C2
:1050C800BD465DF8047B704780B483B000AF78605C
:1050D80000BF0C37BD465DF8047B704780B483B0D1
:1050E80000AF78600B467B8000BF0C37BD465DF88B
:1050F800047B70472DE9B04F8AB000AFF8600023F9
:1051080087F82230FB689A68FB681B691A43FB68BA
:105118005B691A43FB68DB6913437B62FB681B68A6
:105128001A68A44B1340FA681268796A0B43136033
:10513800FB681B685B6823F44051FB68DA68FB680E
:105148001B680A435A60FB689B697B62FB681B68A3
:10515800994A934204D0FB681B6A7A6A13437B62BC
:10516800FB681B689B6823F43061FB681B687A6ADC
:105178000A439A60FB681B68904A934226D1904B79
:10518800D3F8883003F00303032B1BD801A252F88D
:1051980023F000BFAD510008BD510008B55100080B
:1051A800C5510008012387F8233016E1022387F848
:1051B800233012E1042387F823300EE1082387F80F
:1051C80023300AE1102387F8233006E1FB681B68C7
:1051D8007C4A934238D17A4BD3F8883003F00C03D9
:1051E8000C2B2DD801A252F823F000BF2952000839
:1051F800495200084952000849520008395200082B
:105208004952000849520008495200083152000822
:105218004952000849520008495200084152000802
:10522800002387F82330D8E0022387F82330D4E01E
:10523800042387F82330D0E0082387F82330CCE014
:10524800102387F82330C8E0FB681B685E4A934246
:1052580025D15B4BD3F8883003F03003302B16D0C0
:10526800302B18D8202B0AD0202B14D8002B02D092
:10527800102B08D00FE0002387F82330ADE002237D
:1052880087F82330A9E0042387F82330A5E0082312
:1052980087F82330A1E0102387F823309DE0FB68CE
:1052A8001B684A4A934225D1454BD3F8883003F00E
:1052B800C003C02B16D0C02B18D8802B0AD0802B47
:1052C80014D8002B02D0402B08D00FE0002387F819
:1052D800233082E0022387F823307EE0042387F816
:1052E80023307AE0082387F8233076E0102387F804
:1052F800233072E0FB681B68354A93422AD1304B51
:10530800D3F8883003F44073B3F5407F1AD0B3F56F
:10531800407F1BD8B3F5007F0CD0B3F5007F15D8BC
:10532800002B03D0B3F5807F08D00FE0002387F867
:10533800233052E0022387F823304EE0042387F815
:1053480023304AE0082387F8233046E0102387F803
:10535800233042E0FB681B68174A93423AD1184B46
:10536800D3F8883003F44063B3F5406F1AD0B3F52F
:10537800406F1BD8B3F5006F0CD0B3F5006F15D88C
:10538800002B03D0B3F5806F08D00FE0002387F817
:10539800233022E0022387F823301EE0042387F815
:1053A80023301AE0082387F8233016E0102387F803
:1053B800233012E0F369FFEF00800040003801401D
:1053C800001002400044004000480040004C0040EB
:1053D80000500040102387F82330FB681B689F4A61
:1053E80093427AD197F82330082B24D801A252F897
:1053F80023F000BF215400083F5400082954000836
:105408003F5400082F5400083F5400083F54000838
:105418003F54000837540008FEF7FAFCF86110E022
:105428008F4BFB610DE0FEF75BFCF86109E04FF480
:105438000043FB6105E00023FB61012387F822306C
:1054480000BFFB69002B00F0FB80FB685A6813461D
:105458005B001344FA699A4205D3FB685B681B0337
:10546800FA699A4203D9012387F82230E8E0FB69F8
:1054780000221C4615464FF000024FF000032B0295
:1054880043EA14632202F9684968490800208846FB
:10549800814612EB080A43EB090BFB685B680022A4
:1054A8003B607A60D7E9002350465946FAF790FEE8
:1054B80002460B461346BB61BB69B3F5407F08D370
:1054C800BB69B3F5801F04D2FB681B68BA69DA6050
:1054D800B6E0012387F82230B2E0FB68DB69B3F558
:1054E800004F5ED197F82330082B28D801A252F834
:1054F80023F000BF21550008295500083155000840
:105508004755000837550008475500084755000813
:10551800475500083F550008FEF77AFCF86114E08B
:10552800FEF78CFCF86110E04D4BFB610DE0FEF7D7
:10553800D7FBF86109E04FF40043FB6105E0002365
:10554800FB61012387F8223000BFFB69002B77D06D
:10555800FB695A00FB685B685B081A44FB685B6878
:10556800B2FBF3F3BB61BB690F2B16D9BB69B3F56B
:10557800803F12D2BB699BB223F00F03FB82BB6949
:105588005B089BB203F007039AB2FB8A1343FB82C2
:10559800FB681B68FA8ADA6052E0012387F8223038
:1055A8004EE097F82330082B27D801A252F823F0B1
:1055B800DD550008E5550008ED55000803560008BC
:1055C800F355000803560008035600080356000860
:1055D800FB550008FEF71CFCF86114E0FEF72EFCF2
:1055E800F86110E01E4BFB610DE0FEF779FBF861F6
:1055F80009E04FF40043FB6105E00023FB61012350
:1056080087F8223000BFFB69002B19D0FB685B6864
:105618005A08FB691A44FB685B68B2FBF3F3BB6189
:10562800BB690F2B09D9BB69B3F5803F05D2BB69AC
:105638009AB2FB681B68DA6002E0012387F822301F
:10564800FB6800229A66FB680022DA6697F8223027
:1056580018462837BD46BDE8B08F00BF008000401F
:105668000024F40080B483B000AF78607B685B6A84
:1056780003F00803002B0AD07B681B685B6823F4DF
:1056880000417B685A6B7B681B680A435A607B68D9
:105698005B6A03F00103002B0AD07B681B685B6818
:1056A80023F400317B689A6A7B681B680A435A6056
:1056B8007B685B6A03F00203002B0AD07B681B68D7
:1056C8005B6823F480317B68DA6A7B681B680A436D
:1056D8005A607B685B6A03F00403002B0AD07B687E
:1056E8001B685B6823F480217B681A6B7B681B68E6
:1056F8000A435A607B685B6A03F01003002B0AD0E8
:105708007B681B689B6823F480517B689A6B7B6875
:105718001B680A439A607B685B6A03F02003002BCE
:105728000AD07B681B689B6823F400517B68DA6B9E
:105738007B681B680A439A607B685B6A03F04003D6
:10574800002B1AD07B681B685B6823F480117B6888
:105758001A6C7B681B680A435A607B681B6CB3F53C
:10576800801F0AD17B681B685B6823F4C0017B68D3
:105778005A6C7B681B680A435A607B685B6A03F053
:105788008003002B0AD07B681B685B6823F4002128
:105798007B689A6C7B681B680A435A6000BF0C37A9
:1057A800BD465DF8047B704780B598B002AF78605D
:1057B8007B680022C3F88420FCF7F0FF78657B68DB
:1057C8001B681B6803F00803082B2ED16FF07E437B
:1057D80000937B6D00224FF40011786800F08CF87C
:1057E8000346002B21D07B681B68BB63BB6B53E867
:1057F800003F7B637B6B23F080033B657B681B6802
:105808001A463B6D7B643A64396C7A6C41E8002334
:10581800FB63FB6B002BE6D17B682022DA677B6891
:10582800002283F87820032362E07B681B681B68EA
:1058380003F00403042B49D16FF07E4300937B6D82
:1058480000224FF48001786800F056F80346002BD8
:105858003CD07B681B687B627B6A53E8003F3B62F5
:105868003B6A23F49073FB647B681B681A46FB6CE5
:105878003B63FA62F96A3A6B41E80023BB62BB6A90
:10588800002BE6D17B681B6808333B613B6953E812
:10589800003FFB60FB6823F00103BB647B681B6867
:1058A8000833BA6CFA61BB61B969FA6941E8002347
:1058B8007B617B69002BE5D17B682022C3F88020BF
:1058C8007B68002283F87820032311E07B6820227C
:1058D800DA677B682022C3F880207B6800221A667A
:1058E8007B6800225A667B68002283F878200023B0
:1058F80018465837BD4680BD80B584B000AFF86003
:10590800B9603B601346FB7149E0BB69B3F1FF3FE7
:1059180045D0FCF743FF02463B68D31ABA699A425E
:1059280002D3BB69002B01D1032348E0FB681B6845
:105938001B6803F00403002B31D0FB681B68DB698C
:1059480003F00803082B10D1FB681B6808221A62B1
:10595800F86800F0FFF8FB680822C3F88420FB68A9
:10596800002283F87820012329E0FB681B68DB69A3
:1059780003F40063B3F5006F11D1FB681B684FF4A3
:1059880000621A62F86800F0E5F8FB682022C3F8A4
:105998008420FB68002283F8782003230FE0FB684B
:1059A8001B68DA69BB681340BA689A420CBF0123C6
:1059B8000023DBB21A46FB799A42A6D00023184688
:1059C8001037BD4680BD000080B596B000AFF860C6
:1059D800B9601346FB80FB68BA685A65FB68FA88A9
:1059E800A3F85820FB680022C3F88420FB68222211
:1059F800C3F88020FB685B6F002B28D0FB685B6FC7
:105A08003E4ADA62FB685B6F3D4A1A63FB685B6F6C
:105A18003C4A5A63FB685B6F00229A63FB68586FC5
:105A2800FB681B6824331946FB685B6D1A46FB88C4
:105A3800FDF7AEF80346002B09D0FB681022C3F827
:105A48008420FB682022C3F88020012351E0FB68F2
:105A58001B69002B18D0FB681B68FB63FB6B53E8C2
:105A6800003FBB63BB6B43F480737B65FB681B68BB
:105A78001A467B6DBB647A64796CBA6C41E8002382
:105A88003B643B6C002BE6D1FB681B680833BB62A8
:105A9800BB6A53E8003F7B627B6A43F001033B65C6
:105AA800FB681B6808333A6D7A633B63396B7A6B22
:105AB80041E80023FB62FB6A002BE5D1FB681B6809
:105AC80008337B617B6953E8003F3B613B6943F0E6
