:020000040800F2
:10000000008001202D1300084D1100084F11000839
:10001000511100085311000855110008000000009C
:100020000000000000000000000000005711000860
:1000300059110008000000005B1100085D11000864
:100040007D1300087D1300087D1300087D13000850
:100050007D1300087D1300087D1300087D13000840
:100060007D1300087D1300087D1300087D13000830
:100070007D1300087D1300087D1300087D13000820
:10008000611100086D1100087D1300087D13000840
:100090007D1300087D1300087D1300087D13000800
:1000A0007D1300087D1300087D1300087D130008F0
:1000B0007D1300087D1300087D1300087D130008E0
:1000C0007D1300087D1300087D1300087D130008D0
:1000D0007D1300087D130008791100087D130008C6
:1000E0007D1300087D1300087D1300087D130008B0
:1000F0007D1300087D1300087D1300087D130008A0
:100100007D1300087D1300087D1300087D1300088F
:100110007D1300087D1300087D1300087D1300087F
:100120007D1300087D1300087D1300087D1300086F
:100130007D1300087D1300087D1300087D1300085F
:100140007D1300087D1300087D1300087D1300084F
:100150007D1300087D1300087D1300087D1300083F
:100160007D1300087D1300087D1300087D1300082F
:100170007D1300087D1300087D13000800000000B7
:080180007D1300087D13000847
:1001880010B5054C237833B9044B13B10448AFF3C9
:1001980000800123237010BD8000002000000000B3
:1001A8001435000808B5034B1BB103490348AFF3E6
:1001B800008008BD000000008400002014350008FD
:1001C800034613F8012B002AFBD1181A013870478F
:1001D80053B94AB9002908BF00281CBF4FF0FF31A6
:1001E8004FF0FF3000F070B9ADF1080C6DE904CEA6
:1001F80000F006F8DDF804E0DDE9022304B07047FA
:100208002DE9F047089E0D4604460F46002B4AD1BB
:100218008A42944665D9B2FA82F343B102FA03FCE2
:10022800C3F120029F4020FA02F217439C404FEA94
:100238001C4E1FFA8CF5B7FBFEF1220C0EFB117752
:1002480042EA074201FB05F090420AD91CEB020280
:1002580001F1FF3780F01C81904240F21981023988
:100268006244121AA4B2B2FBFEF00EFB102244EA5A
:10027800024400FB05F5A5420AD91CEB040400F171
:10028800FF3280F00781A54240F2048164440238BD
:1002980040EA0140641B00211EB1DC400023C6E98E
:1002A8000043BDE8F0878B4208D9002E00F0ED80AE
:1002B8000021C6E900050846BDE8F087B3FA83F1D6
:1002C800002949D1AB4202D3824200F2F880841A55
:1002D80065EB030201201746002EE2D0C6E900476D
:1002E800DFE702B9FFDEB2FA82F3002B40F090801C
:1002F8008A1A4FEA1C471FFA8CFE0121B2FBF7F558
:1003080007FB1520220C42EA00420EFB05F0904242
:1003180008D91CEB020205F1FF3802D2904200F224
:10032800CB804546121AA4B2B2FBF7F007FB1022A5
:1003380044EA02440EFB00FEA64508D91CEB04045F
:1003480000F1FF3202D2A64500F2BB801046A4EBB2
:100358000E0440EA05409FE7C1F120078B4022FACE
:1003680007FC4CEA030C05FA01F420FA07F3FD40F8
:100378004FEA1C492343B5FBF9F81FFA8CFE09FB29
:1003880018551C0C44EA054408FB0EF5A54202FA70
:1003980001F200FA01F00BD91CEB040408F1FF3A52
:1003A80080F08880A54240F28580A8F10208644464
:1003B800641B9DB2B4FBF9F309FB134445EA0444FA
:1003C80003FB0EFEA64508D91CEB040403F1FF3518
:1003D8006CD2A6456AD9023B644443EA0843A3FBAE
:1003E8000295A4EB0E04AC42C846AE4656D353D091
:1003F80056B1B0EB080264EB0E0404FA07F7CA40E2
:10040800CC401743C6E9007418460021BDE8F087C0
:10041800C3F1200102FA03FC20FA01F225FA01F1E6
:100428009D402A434FEA1C471FFA8CFEB1FBF7F0A8
:1004380007FB1015110C41EA054100FB0EF58D4232
:1004480004FA03F408D91CEB010100F1FF382FD29C
:100458008D422DD902386144491B92B2B1FBF7F5A0
:1004680007FB151142EA014205FB0EF1914208D93A
:100478001CEB020205F1FF3816D2914214D9023D55
:100488006244521A45EA004138E73146304608E7E7
:100498003946E6E61046FBE64845A9D2B9EB02081C
:1004A80065EB0C0E013BA3E74546EAE72B4694E7CC
:1004B8004046D1E7D0467BE7023D624432E7084632
:1004C8000AE76444023842E7704700BF0E4B07B59D
:1004D8009A6C42F001029A649B6C002203F00103BB
:1004E800114601931020019B00F0B4FF102000F08A
:1004F800E3FF00221146112000F0ACFF112003B0E9
:100508005DF804EB00F0D8BF00100240064BDA6C2F
:1005180042F00802DA64DB6C82B003F0080301934E
:10052800019B02B0704700BF0010024000B597B0B1
:100538004422002105A802F096FE142200216846F4
:1005480002F091FE4FF4007001F0F6F908B172B6AE
:10055800FEE7102305930123CDE90B300F906023AC
:1005680005A80D9301F0AEFA014608B172B6FEE790
:100578000F23CDE90030CDE902000490684601F070
:1005880021FD08B172B6FEE717B05DF804FB08B5A7
:1005980000F018FFFFF7CAFFFFF7B8FFFFF796FF55
:1005A80000F024FE00F024F900F022FDFCE772B60A
:1005B800FEE743680B7043681B0A4B70C3888B7057
:1005C800C379CB7083680B7183681B0A4B714389AD
:1005D8008B71C37ACB71082070470B7843604A78D7
:1005E80043EA022343608A7843EA02434360CA78B5
:1005F80043EA026343600B7983604A7943EA022342
:1006080083608A7943EA02438360CA7943EA0263D2
:100618008360082070470000004870472C350008A8
:10062800004870473A350008004870475B350008B5
:100638000048704774350008004870479535000831
:1006480000487047A835000800487047E836000899
:1006580000487047C935000800487047EA35000867
:1006680000487047FA35000890F800097047000004
:1006780038B504460068C36F202B19D1124D2B786A
:10068800B3B90123D4F80C142B70D4F808348B4276
:100698000CD08AB201F5027121440AD99A1A92B291
:1006A80002F072F8D4F80834C4F80C3400232B7024
:1006B80038BDC2F5007292B202F066F8B4F80824A8
:1006C800206804F50271EBE79C0000202DE9F04357
:1006D8006329044685B00E46104603DD94F8005998
:1006E800002D54D0036804F22B611B6898474FF61D
:1006F800FF63A4F8243684F82966C0F3072346F379
:100708000726034484F82A662D4EA4F82606DB4300
:1007180084F8283604F5C5620023851D361BB118F8
:100728008D4238DA00F108052044DB4380F82B3687
:1007380040F201239D4232D0D4F80C04B5F5007F75
:100748002F46C0F50076A8BF4FF40077BE4228BFF9
:100758003E4604F1040804F2246900F502703246AA
:100768004946404402F0B4FDD4F80C343B44C3F38A
:100778000803B742C4F80C3406D0BA1B09EB0601CB
:1007880004F5037002F0A4FD4046FFF771FF284608
:1007980005B0BDE8F08312F8011F0B44BFE7094B11
:1007A800019303238DF80830074B0393236801AAAC
:1007B8001B680721204698474FF0FF35E7E700BF41
:1007C800DDF9FFFF943600081B36000808B502481B
:1007D800FFF74EFF08BD00BFB8000020034B4FF4E1
:1007E8000072586803F1080102F0C8BCB400002088
:1007F80010B5114C4FF40072606804F1080102F062
:10080800BDFC0023C4F8EC38C4F8F038C4F8F83854
:10081800C4F8F43804F5026252F8041F41B9074AD3
:1008280004EB83017D33C2E90234C1F8242810BDEA
:100838000133192BF0D1FAE7B4000020A000002002
:100848000B0A017043700B0C090E8370C17070475E
:1008580070B5064640680D46FFF7B2FC04460146EF
:100868002846FFF7EDFF71682246281D02F030FD8B
:10087800201D70BD43682DE9F0410B7043681B0AC9
:100888004B70C3888B70C379CB700D464A1D0446E4
:10089800002167688B008F4202F1FF3E944602F107
:1008A800010602F1020003F1080302F104022FD845
:1008B80022698EF800202269120A8CF80020628AC8
:1008C8003270E27C02702B440021C5F104082669CD
:1008D8008E429E4603F1010C03F1020003F103026C
:1008E80008EB030703F1040322D8E3698EF800300C
:1008F800E3691B0A8CF80030E38B0370E37F137005
:100908004FF00008E369434522D83846BDE8F08136
:10091800E36853F8213002F8053C180A02F8040C81
:10092800180C1B0E02F8030C02F8023C0131B0E768
:10093800A26952F8212003F8042C100A03F8030CCA
:10094800100C120E03F8020C03F8012C0131BEE75B
:10095800636A53F82800FFF733FC06460146E81996
:10096800FFF76EFF636A043753F82810E819324618
:1009780002F0AEFC374408F10108C3E7F8B50F46AA
:10098800037907F8013B054680680E46FFF718FC17
:10099800044601463846FFF753FFA9682246701DF2
:1009A80002F096FC601DF8BDF8B583880B7083884B
:1009B8001B0A4B70064680680D46FFF701FC04468B
:1009C8000146A81CFFF73CFF2246B168A81D02F0AB
:1009D8007FFCF068FFF7F4FB0746A01D3946284462
:1009E8000A34FFF72DFF3A46F168281902F070FC27
:1009F8003069FFF7E5FB3C440146074628190434F3
:100A0800FFF71EFF316928193A4602F061FCE01928
:100A180073692B540544190A6970190C1B0EA970C7
:100A2800EB700430F8BD10B500230360013911F8EC
:100A3800014F02689C4008332243202B0260F6D104
:100A480010BDF7B50C4611F8013B0371054601A826
:100A5800FFF7E9FF019E231D771D34BF32460022B0
:100A6800611D184602F0E5FB344400222271A8609B
:100A7800384603B0F0BD2DE9FF410B7883804A78F2
:100A880043EA02230C4607468380023101A8FFF798
:100A9800CAFF019E631D16F1060834BF32460022C4
:100AA800A11D184602F0C5FBA2190025557104EBDB
:100AB8000801B86002A8FFF7B6FF2B46029D06F1B1
:100AC8000A014D1928BF0123AA1B0936002B264409
:100AD800A2F10A02214418BF0022304602F0A9FB05
:100AE80061194FF0000801F8018C03A8FE60FFF7B8
:100AF8009AFF039E291D7618A6EB050228BF4FF022
:100B080001080335B8F1000F2544A2F1040221447D
:100B180018BF0022284602F08CFBA219002302F815
:100B2800013C3D6193785178D2781B0443EA012354
:100B3800A15D0B4343EA0263301D7B6104B0BDE84D
:100B4800F0812DE9F34743680D68AB4204460E4631
:100B580004D2C068A90002F035FBE0606560324647
:100B68000021957953792D0445EA032513791D430E
:100B7800D37945EA03658B0003F1080763688B4264
:100B880002F1040232D82369AB4204D2A069A90059
:100B980002F018FBA0612561F3190022C6F10400D8
:100BA8009D7859782D0445EA012519780D43D9789F
:100BB80045EA01652169914200EB030703F104034B
:100BC8001AD8E369AB4204D2606AA90002F0FAFAC3
:100BD80060624FF00008E5616FF00309C246E369FF
:100BE80043450FD8384602B0BDE8F087E368A560F2
:100BF80043F821500131B4E7A169656141F82250F9
:100C08000132CDE7F11901A8FFF70DFF019D391D4C
:100C1800FB1C6D18A9EB070233442A44314428BF52
:100C28000022184602F005FB72192F4602F801ACA3
:100C3800626A206242F8280008F10108CFE7F7B598
:100C4800064601A80C46FFF7EEFE019DE31C2F1D8A
:100C580034BF2A460022211D184602F0EAFA2C4425
:100C68000022E2707060384603B0F0BD1FB5084B33
:100C780001930023CDE90233036801AA1B680A2106
:100C88000446984700F0BAFBC4F8140404B010BD39
:100C9800643600082DE9F04186B02A4B00932A4BB0
:100CA8000493CDE9023300230546059300F5026459
:100CB80000F684064FF4007754F8043FBBB1586837
:100CC8009A68ADF804201A68036802929B689847EE
:100CD8002368039058680368DB68984721682B6885
:100CE80009691B68CDE904076A4628469847B44253
:100CF800E2D105F6E8064FF4007754F8040FC8B1BE
:100D08004368ADF804308368029303689B6898478A
:100D1800039020680368DB6898472B68CDE90407CF
:100D28002068D3F8008003685B6898476A460146E4
:100D38002846C047B442E0D1012385F8003906B0FF
:100D4800BDE8F0817C36000853360008F0B587B05E
:100D58001C4B039304460023CDE90433019100F0B2
:100D68004DFBD4F814340199174DC71A03A8FFF79F
:100D780034FC049B5E1E059B1D4400F03FFB4FF4B2
:100D88007A72B7FBF2FC0CEB0603B0FBF2F15B1ACC
:100D9800C4F818340D4B02FB1C7702FB110003FB4F
:100DA800075503FB105504F21C4104F58360C4F891
:100DB8001C5400F00DFA00F021FBC4F8080907B034
:100DC800F0BD00BF6436000800CA9A3B40420F00DD
:100DD8002DE9F041044600F011FBD4F8083942F639
:100DE800F822C31A934284BF002384F80039D4F848
:100DF800EC38054633B1D4F80C3983423CBF0023A4
:100E0800C4F8EC38DFF8E481002604F22447D4F86B
:100E180020348BB96368D4F808225B6F1B685B6861
:100E28005B42C3F308039A4210D194F800090028E2
:100E380040F0CE80BDE8F08100F0E0FAD4F820342C
:100E4800401B9842E6D96FF00100F3E7A31801327E
:100E5800C2F308021B7AD4F8EC18C4F80822D4F8B4
:100E6800FC2807291A44C4F8FC2812D1D4F8F82819
:100E7800511C2244C4F8F81882F82434D4F8F03805
:100E8800013BC4F8F038002BC1D10823C4F8EC3872
:100E9800BDE70829BBD801A050F821F0C90E000809
:100EA800F30E00080F0F0008230F0008330F000887
:100EB800450F00084D0F0008170E0008650F0008C1
:100EC800FF2B07D10123C4F8EC3805F11403C4F84B
:100ED8000C399CE700F092FA41F28833401B9842A3
:100EE80095D9002384F80039ADE7FE2B01D1022300
:100EF800CCE794F80039C4F8EC68002B87D1204679
:100F0800FFF7B4FE83E7C4F8F038C4F8F8680322A2
:100F1800C4F8EC28C4F8FC3879E7D4F8F02802EBD8
:100F28000322C4F8F0280423B0E702EA0802FF2AE3
:100F380001D10523AAE7C4F8EC6868E7C4F8F438D7
:100F48000622E5E7D4F8F42802EB03220723C4F8C5
:100F5800EC38C4F8F428D4F8F03894E702EA080228
:100F6800FF2AC4F8EC687FF452AFD4F8F43863B9B8
:100F78002046FFF77BFE2046FFF78CFEC4F8045995
:100F8800C4F808594FF0FF3054E70A2B04D139460A
:100F98002046FFF7DBFE3AE7062B08D1394604F670
:100FA8001410FFF7CEFD012384F810392FE70B2B1F
:100FB80002D184F800692AE703F5DF7354F82300A7
:100FC80000283FF424AF036839461B6898471EE79A
:100FD800D4F8043940F6C412EB1A934204D92046D7
:100FE800FFF744FEC4F80459002023E7FF000080FF
:100FF800084A094B10B55360084BD86801680C685B
:101008009968A0470648FFF7E3FEBDE81040642052
:1010180000F0FAB9F009002000000020A00000202C
:10102800B400002038B5324C324B23600025324BD7
:1010380063604FF40072294604F22440C4F8085251
:10104800C4F80C54C4F81054C4F81454C4F8185410
:10105800C4F81C54C4F8205402F005F94FF4007287
:10106800294604F2246002F0FEF86422294604F6B8
:10107800240002F0F8F86422294604F6880002F0F9
:10108800F2F81E4BC4F8143904F6281300221A602B
:101098001B4A1C4B13601C4B1C4953601C4BC4F867
:1010A800EC58C3E90012C4F8F058C4F8F458C4F86E
:1010B800F858C4F8FC5884F80059C4F80459C4F81E
:1010C8000859C4F80C5984F81059C4F81859C4F8C8
:1010D8001C59C4F82059C4F82459C4F82C59C4F828
:1010E8003059C4F83459C4F838591D6138BD00BFA7
:1010F800B4000020DC3600088C0A0020AC3600085A
:10110800F0090020C4360008533600085436000899
:10111800A00000200A4B1A6E42F001021A661A6EED
:1011280082B002F001020092009A9A6D42F0805259
:101138009A659B6D03F080530193019B02B0704741
:1011480000100240FEE7FEE7FEE7FEE7FEE7704715
:101158007047704700F046B9014800F0BDBA00BFBB
:10116800FC090020014800F0B7BA00BF440A00207B
:10117800014801F0ABBB00BF8C0A00200B4A116884
:1011880010B5034609B90A491160106809490A4CA3
:101198000344091B8B4206D902F06EF80C23036046
:1011A8004FF0FF3010BD1360FCE700BFF8090020C6
:1011B800600C00200080012000040000034AD2F8DF
:1011C800883043F47003C2F88830704700ED00E0BF
:1011D80030B50B680268044DB3FBF5F4224405FBF7
:1011E800143302600B6030BD00CA9A3B0C480D4AAC
:1011F80008B54FF4E133C0E9002300230C22C0E90D
:101208000233C0E90523C0E907330361436201F0F3
:1012180039FF18B1BDE80840FFF7C9B908BD00BFDC
:101228008C0A002000440040F0B5ABB005461422FB
:10123800002103A802F017F88822002108A802F06C
:1012480012F82A68304B9A425BD1022308A8089307
:1012580001F088F808B1FFF7AAF92C4B2C489A6DD1
:101268002C4C42F400329A659A6D02F400320192D5
:10127800019ADA6C42F00802DA64DB6C03F00803C6
:101288000293029B022760230026CDE9033703233C
:10129800CDE9056303A90723079300F067FA1E4BFE
:1012A8002662C4E9003720468023C4E90266C4E9FF
:1012B8000436C4E9066600F021F908B1FFF777F9AA
:1012C800164A6C67A562164C0223C4E90023102154
:1012D800002380222046C4E90213C4E90423C4E998
:1012E8000633236200F00AF908B1FFF760F900221B
:1012F80026202C671146A56200F0ACF8262000F0E5
:10130800DBF82BB0F0BD00BF0044004000100240E5
:10131800000C0048FC0900206C00024080000240DC
:10132800440A0020DFF834D0FFF748FF0C480D4985
:101338000D4A002302E0D458C4500433C4188C4228
:10134800F9D30A4A0A4C002301E013600432A2428E
:10135800FBD301F097FFFFF71AF9FEE700800120A1
:101368000000002080000020703700088000002066
:10137800600C0020FEE7000038B50F4B1A780546D0
:101388000AB9012038BD4FF47A73B3FBF2F30B4A64
:101398001068B0FBF3F000F09DF804460028F0D187
:1013A8000F2DEED8024629464FF0FF3000F052F8D4
:1013B800034B20461D60E5E728000020240000209C
:1013C8002C00002010B5032000F032F80F20FFF7A2
:1013D800D3FF044618B9FFF79DFE204610BD01242F
:1013E800FBE70000034A044B11681B780B441360A9
:1013F800704700BF140B002028000020014B18681C
:10140800704700BF140B002038B50446FFF7F6FFFD
:10141800631C1CBF054B1B78054618BFE418FFF773
:10142800EDFF431BA342FAD338BD00BF28000020BC
:101438000749CA6822F4E0620302120403F4E06375
:10144800120C134343F0BF6343F40033CB6070477F
:1014580000ED00E0164B30B5DC68C4F30224C4F19B
:101468000703251D042B28BF0423062D4FF0FF3545
:101478008CBF033C002405FA03F321EA0303A540CB
:1014880022EA0502A340002843EA0203ACBF00F1A8
:101498006040084A4FEA0313B8BF00F00F00DBB200
:1014A800AABF00F56140135480F8003330BD00BF77
:1014B80000ED00E014ED00E0002807DB044A4109D4
:1014C800012300F01F00834042F82130704700BF1D
:1014D80000E100E00138B0F1807F0BD24FF0E0234B
:1014E800054A5861F02182F82310002007229861EC
:1014F8001A6170470120704700ED00E0F0B5002840
:1015080057D005682C4B9D424FF014023FD82B4B07
:101518002B492B44B3FBF2F39B00022280F82520D1
:10152800D0E9026207692C6832433A4347693A4373
:1015380087693A43C7693A43076A24F4FF4424F0A9
:1015480070043A432243B6F5804FC0E910132A606D
:1015580014D0446803F01C030F229A409C40184B97
:1015680099426FEA020219D1D1F8A8301340C1F8A4
:10157800A830D1F8A8302343C1F8A83000230122AD
:10158800C36380F8243080F825201846F0BD0D4B41
:101598000D492B44B3FBF2F39B00BEE7D3F8A81424
:1015A8000A40C3F8A824D3F8A8242243C3F8A824DF
:1015B800E4E70120EAE700BF07040240F8FFFDBFA7
:1015C80000000240F8FBFDBF00040240F0B590F8AF
:1015D8002440012C37D0012480F8244090F825407D
:1015E800012CE5B24FF000064FF0020429D180F833
:1015F80025400468C663266826F001062660D0E9FF
:10160800106707F01C07BD40756063608368102B86
:10161800036B0BBFA260A160E160E2604BB123687D
:1016280043F00E032360236843F001032360002086
:10163800F0BD236823F004032360236843F00A0302
:10164800F0E780F824600220F2E790F82520022ACB
:10165800034606D00422C2630120002283F8242016
:1016680070470268116821F00E011160116821F0BD
:1016780001011160D0E91002012102F01C0201FAF7
:1016880002F2426083F825100020E6E710B590F8D2
:101698002520022A03D00422C263012010BD02685B
:1016A800836B116821F00E011160116821F00101AE
:1016B8001160D0E91042012102F01C0201FA02F285
:1016C8006260002480F8251080F8244013B1984700
:1016D8002046E3E71846E1E7016C426C036870B402
:1016E80002F01C020E681D680424944034420ED097
:1016F80015F0040F0BD01A6892065EBF1A6822F024
:1017080004021A60036B4C6073B370BC1847022460
:101718009440344212D015F0020F0FD01A68950683
:1017280006D41A6822F00A021A60012380F82530CC
:1017380000234C6080F82430C36AE5E7082494400D
:10174800344211D02C070FD51C6824F00E041C60FD
:10175800012303FA02F24A60C36380F825300023AC
:1017680080F82430436BCFE770BC70472DE9F74F02
:10177800DFF8B091694C00230A6832FA03F502D108
:1017880003B0BDE8F08F4FF0010E0EFA03FE1EEA1B
:10179800020200F090804D6805F003064FEA430806
:1017A8004FF0030C771E0CFA08FC012F6FEA0C0CA3
:1017B80000F28380876807EA0C0ACF6807FA08F7FF
:1017C80047EA0A078760476827EA0E0EC5F300173D
:1017D8009F4047EA0E074760C76807EA0C0E8F6804
:1017E80007FA08F747EA0E07022EC76071D00768A4
:1017F80006FA08F607EA0C073E4315F4403F066070
:1018080059D0D9F8606046F00106C9F86060D9F887
:10181800606023F0030707F1804706F0010607F52B
:101828008037019603F0030E019EBE684FEA8E0EC4
:101838004FF00F0C0CFA0EFCB0F1904F26EA0C0C8E
:101848005FD0374EB0425ED006F58066B0425CD0BD
:1018580006F58066B0425AD006F58066B04258D088
:1018680006F58066B04256D006F58066B0420CBFD9
:101878000626072606FA0EF646EA0C06BE60A66895
:10188800D74315F4801F0CBF3E401643A660E66898
:1018980015F4001F0CBF3E401643E660666815F459
:1018A800003F0CBF3E40164366602668ED0354BFF8
:1018B8003E401643266001335EE7032E8CD1C76A8B
:1018C80027EA0E0EC5F3C0079F4047EA0E07C76216
:1018D8008DE74FEAD30A00EB8A0A03F0070BDAF820
:1018E80020704FEA8B0B4FF00F0E0EFA0BFE27EA13
:1018F8000E0E0F6907FA0BF747EA0E07CAF82070B1
:1019080075E70026B6E70126B4E70226B2E7032604
:10191800B0E70426AEE70526ACE700BF00040140A7
:101928000004004800100240024B186800F4C06030
:10193800704700BF00700040174A1368B0F5007F79
:1019480003F4C0631DD1B3F5007F01D100207047B7
:10195800136823F4C06343F4007313600F4B1B68D0
:1019680032214B430E49B3FBF1F301335169490569
:1019780000D523B953695B05E8D503207047013BBF
:10198800F4E7B3F5806F1FBF136823F4C06343F413
:1019980080631360DAE700BF007000402400002075
:1019A80040420F0037B51E4DAB6DDA00044618D51E
:1019B800FFF7BAFFB0F5007F23D1802C29D9A02CDE
:1019C8008CBF0224012417490A6822F00702224327
:1019D8000A60086800F00700001B18BF012003B068
:1019E80030BDAB6D43F08053AB65AB6D03F08053F6
:1019F8000193019BFFF798FFAB6D23F08053AB6514
:101A0800D8E7802C07D808D0A4F170035C425C4169
:101A1800D9E70024D7E70324D5E70224D3E700BF9A
:101A28000010024000200240224B9A68D96812F048
:101A38000C0205D00C2A15D101F00301012918D197
:101A480019681D48090755BFD3F894101968C1F3E0
:101A58000321C1F3031150F821004AB30C2A09D01D
:101A680000207047042A22D0082A144818BF0020F2
:101A780070470020DA6802F00302022A15D00F49E5
:101A8800032A08BF0846D968DA68C2F30622424327
:101A9800D868C0F34160C1F3021101300131400040
:101AA800B2FBF1F2B2FBF0F070470548EBE70448EF
:101AB800704700BF001002401C37000800127A006F
:101AC8000024F4002DE9F743054618B9012003B0B6
:101AD800BDE8F083924C0368A668E768DB0606F069
:101AE8000C0607F003073DD51EB10C2E66D1012F59
:101AF80064D12368980702D5AB69002BE6D0236828
:101B0800286A190756BFD4F8943023681B0903F0D4
:101B1800F00398423BD9FFF745FF0028D6D1236848
:101B280043F00803236023682A6A23F0F003134371
:101B380023606368EA6923F47F4343EA022363600E
:101B4800FFF772FFA368774AC3F30313D35C03F06C
:101B58001F03D840744B1860744B1868FFF70CFCCF
:101B68000028B4D12B68D8075FD42B68990700F1F7
:101B78009E802B68180700F1DB802B68590700F15D
:101B88000181AB6A002B40F06A8100209FE723683F
:101B980043F008032360236823F0F0030343236022
:101BA8006368EA6923F47F4343EA02236360002EF3
:101BB800C6D1FFF7F7FE0028C2D087E7AB691BB391
:101BC800236843F001032360FFF718FC804623686D
:101BD8009A0711D5236843F00803236023682A6A0B
:101BE80023F0F003134323606368EA6923F47F4317
:101BF80043EA02236360B5E7FFF700FCA0EB0800A7
:101C08000228E4D9032062E7236823F00103236054
:101C1800FFF7F4FB804623689B07A3D5FFF7EEFB8D
:101C2800A0EB08000228F6D9ECE7082E03D00C2E0A
:101C380008D1032F06D123689A0396D56B68002B29
:101C480093D143E76B68B3F5803F10D1236843F421
:101C580080332360FFF7D2FB804623689B0384D43C
:101C6800FFF7CCFBA0EB08006428F6D9CAE7B3F568
:101C7800A02F04D1236843F480232360E6E7226879
:101C880022F480322260226822F480222260002B13
:101C9800E0D1FFF7B3FB8046236898037FF565AF73
:101CA800FFF7ACFBA0EB08006428F5D9AAE7042EDF
:101CB80003D00C2E10D1022F0ED12368590503D55D
:101CC800EB68002B3FF402AF63682A6923F0F853EE
:101CD80043EA026363604CE7EB687BB1236843F433
:101CE80080732360FFF78AFB074623685A05EBD405
:101CF800FFF784FBC01B0228F7D983E7236823F486
:101D080080732360FFF77AFB074623685B057FF53E
:101D180030AFFFF773FBC01B0228F6D972E700BF8C
:101D28000010024004370008240000202C00002086
:101D38006B699BB1D4F8943043F00103C4F8943034
:101D4800FFF75CFB0746D4F894309A073FF515AFC8
:101D5800FFF754FBC01B0228F5D953E7D4F8943099
:101D680023F00103C4F89430FFF748FB0746D4F882
:101D780094309B077FF501AFFFF740FBC01B02289B
:101D8800F5D93FE7A36DDF0029D4A36D43F0805355
:101D9800A365A36D03F080530193019B4FF00108E5
:101DA800854F3B68D8051DD5AB68012B2BD1D4F8DE
:101DB800903043F00103C4F89030FFF71FFB41F265
:101DC80088390746D4F890309A0742D5B8F1000F01
:101DD8003FF4D7AEA36D23F08053A365D1E64FF04F
:101DE8000008DDE73B6843F480733B60FFF706FBC0
:101DF80081463B68D905D7D4FFF700FBA0EB090063
:101E08000228F6D9FEE6052B06D1D4F8903043F027
:101E18000403C4F89030CAE7D4F8902022F00102F5
:101E2800C4F89020D4F8902022F00402C4F890203E
:101E3800002BC2D1FFF7E2FA41F288390746D4F8FD
:101E480090309B07C2D5FFF7D9FAC01B4845F6D991
:101E5800D8E6FFF7D3FAC01B4845B3D9D2E6022B20
:101E680040F08F80E368EA6A03F00301914224D1CD
:101E7800296B03F070020139B2EB011F1DD1696BA8
:101E880003F4FE42B2EB012F17D1AA6B073A03F411
:101E9800003118BF012291420FD1EA6B520803F4B6
:101EA800C001013AB1EB425F07D12A6C520803F036
:101EB800C063013AB3EB426F4AD00C2E3FF406AE32
:101EC80023685F013FF502AE2368DE003FF5FEADF3
:101ED800236823F080732360FFF790FA064623688F
:101EE80098012FD4E268354B1340EA6A13436A6BB2
:101EF80043EA02232A6B013A43EA0213AA6B120946
:101F080043EA4243EA6B5208013A43EA42532A6CD5
:101F18005208013A43EA4263E360236843F080735E
:101F28002360E36843F08073E360FFF767FA0546D0
:101F3800236899013FF529AEFFF760FA401B022894
:101F4800F6D95FE6FFF75AFA801B0228C7D959E687
:101F580023689A013FF519AE236843F08073236024
:101F6800E36843F08073E360FFF748FA05462368A7
:101F78009B013FF50AAEFFF741FA401B0228F6D94C
:101F880040E60C2E3FF4A2AD236823F08073236053
:101F9800FFF734FA0546236813F0007305D1E168AA
:101FA800074A0A40E260184691E5FFF727FA401B06
:101FB8000228F0D926E600BF007000408C809DF909
:101FC800FCFFEEFE2DE9F0410D46044610B9012054
:101FD800BDE8F0814B4A136803F007038B422CD30A
:101FE8002168880734D4C9073FD421688A0768D490
:101FF800444A136803F00703AB426FD811F0040F8B
:10200800414D77D10B0706D5AB68226923F460539D
:1020180043EAC203AB60FFF707FDAB683B4AC3F373
:102028000313BDE8F041D35C03F01F03D840384BDD
:102038001860384B1868FFF79FB9136823F0070337
:102048000B431360136803F007038B42BFD1C7E744
:102058002D4AA068936803F0F003984281BF936803
:1020680023F0F00303439360BDE76268264E032A1A
:1020780033681AD113F0007FA9D0B36823F00303A3
:102088001343B360FFF7BAF941F288380746B368DB
:10209800626803F00C03B3EB820FA6D0FFF7AEF92A
:1020A800C01B4045F3D9032092E7022A02D113F45A
:1020B800003FE1E712B913F0020FDDE713F4806F78
:1020C800DAE7114AA068936803F0F00398423FBF2B
:1020D800936823F0F0030343936089E7136823F0C0
:1020E80007032B431360136803F00703AB427FF425
:1020F8006EAF83E7AB68E26823F4E0631343AB6039
:1021080080E700BF002002400010024004370008AA
:10211800240000202C000020054B064A9B68C3F3CE
:102128000223D35C044A106803F01F03D8407047A9
:10213800001002401437000824000020054B064A0E
:102148009B68C3F3C223D35C044A106803F01F03DF
:10215800D8407047001002401437000824000020BF
:10216800F8B5424CE268930705460E46006829D048
:10217800E26802F0030282423CD1002A3AD0E368C6
:102188006A68C3F302130133934233D1236823F0FF
:1021980080632360FFF732F9074623681A0132D4B7
:1021A800AA681202002E35D0012E23694DD1296963
:1021B80023F4C003490823F4FE430139134343EAD7
:1021C800415331E0022811D0032815D0012811D13C
:1021D800226897071DD5E268696822F07302013901
:1021E80042EA000343EA0113E360CFE7226812F4EE
:1021F800806FF0D101200CE022689103EBD42268B3
:1022080012F4802FF5E7FFF7F9F8C01B0228C4D9AC
:102218000320F8BD2369E96823F41F3323F44073CE
:102228000909134343EA41432361236843F0806368
:102238002360FFF7E3F8064623681B0110D52369DE
:10224800AA69134323610020E3E7696923F0C063A7
:10225800490823F4FE430139134343EA4163E3E7A2
:10226800FFF7CCF8801B0228E6D9D1E7001002401E
:10227800F8B53B4CE268930705460E46006826D041
:10228800E26802F00302824239D1002A37D0E368BB
:102298006A68C3F302130133934230D1236823F0F1
:1022A80080532360FFF7AAF8074623689A002FD4C3
:1022B800A96809029EB363692A6923F0C0635208BA
:1022C80023F4FE43013A0B4343EA426331E0022818
:1022D80011D0032815D0012811D1226897071DD5E0
:1022E800E268696822F07302013942EA000343EAAE
:1022F8000113E360D2E7226812F4806FF0D1012065
:102308000CE022689103EBD4226812F4802FF5E7E1
:10231800FFF774F8C01B0228C7D90320F8BD63690A
:10232800EA6823F41F3323F4407312090B4343EA8A
:1023380042436361236843F080532360FFF75EF8EC
:10234800064623689B0005D563696A691343636180
:102358000020E3E7FFF752F8801B0228F1D9DCE7F9
:10236800001002402DE9F347066816F4006604469B
:1023780009D0416EB1F5000F22D013D831B3B1F5B1
:10238800800F2AD001262368D80409D5A16EB1F19F
:10239800007F2CD026D881B3B1F1807F72D001267E
:1023A800354639E0B1F5400FECD13C4A616ED2F8C0
:1023B800883023F440030B43C2F888300026E2E754
:1023C800364AD36843F48033D360EEE70430FFF72E
:1023D800C7FE06460028D6D1E7E700212030FFF7E0
:1023E80047FFF6E7B1F1407FD9D1354609E02B4ADE
:1023F800D36843F48033D360F7E7201DFFF7B0FEBE
:102408000546002D44D1254AA16ED2F8883023F024
:1024180040730B43C2F888302368990340F15D810B
:102428001E4FBB6DDA0035D4BB6D43F08053BB65DE
:10243800BB6D03F080530193019B4FF00108DFF857
:102448006090D9F8003043F48073C9F80030FEF783
:10245800D5FF8246D9F80030DB0523D54DBBD7F828
:102468009030D4F8842013F4407340F00E81D7F8EC
:102478009030D4F8842023F440731343C7F8903085
:10248800354616E0002104F12000FFF7F1FEB7E71A
:102498002E46C1E74FF00008D1E700BF0010024008
:1024A80000700040FEF7AAFFA0EB0A000228D1D96D
:1024B8000325B8F1000F03D0BB6D23F08053BB6533
:1024C8002368DA0708D59B49A06BD1F8882022F049
:1024D80003020243C1F888209F0708D59549E06B9D
:1024E800D1F8882022F00C020243C1F888205E0748
:1024F80008D59049206CD1F8882022F03002024398
:10250800C1F88820180708D58A49606CD1F8882056
:1025180022F0C0020243C1F88820D90608D58549AF
:10252800A06CD1F8882022F440720243C1F88820B8
:102538009A0608D57F49E06CD1F8882022F44062D9
:102548000243C1F888209F0508D57A49E06DD1F883
:10255800882022F440220243C1F888205E0508D56D
:102568007449206ED1F8882022F440120243C1F841
:102578008820580608D56F49206DD1F8882022F4A4
:1025880040520243C1F88820190608D56949606D90
:10259800D1F8882022F440420243C1F88820DA05A5
:1025A80008D56449A06DD1F8882022F4403202434E
:1025B800C1F888209B0410D55E4AE16ED2F88830B5
:1025C80023F040630B43B1F1006FC2F8883040F04C
:1025D8008680D36843F48013D36023681F030FD524
:1025E800544A216FD2F8883023F040630B43B1F18D
:1025F800006FC2F888307ED1D36843F48013D3606B
:1026080023685E030FD54B4A616FD2F8883023F0F8
:1026180040630B43B1F1006FC2F8883076D1D368BC
:1026280043F48013D3602368580412D54149A26F3C
:10263800D1F8883023F040531343B2F1805FC1F8DA
:1026480088306ED10221201DFFF78AFD002818BFAF
:1026580005462268110408D53649E06FD1F888305C
:1026680023F080430343C1F88830D30309D5314AA6
:10267800D4F88010D2F8883023F000430B43C2F816
:102688008830284602B0BDE8F0879A423FF4EFAEA2
:10269800D7F89020D7F8903043F48033C7F89030BB
:1026A800D7F8903022F4407123F48033D007C7F86C
:1026B8009030C7F890107FF5DAAEFEF79FFE41F232
:1026C80088390546D7F8903099073FF5D0AEFEF720
:1026D80095FE401B4845F5D9EAE63546F0E6B1F1E6
:1026E800806F7FF47AAF0121201DFFF739FD0028A4
:1026F80018BF054671E7B1F1806F81D10121201D16
:10270800FFF72EFD002818BF054679E7B1F1806F65
:1027180089D10121201DFFF723FD002818BF054698
:1027280081E7B2F1005F94D1022104F12000FFF7A4
:102738009FFD8BE700100240026852E8003F23F437
:10274800907342E8003102680029F5D102F10803CC
:1027580053E8003F23F0010302F1080C4CE8003174
:102768000029F3D1036E012B07D152E8003F23F073
:10277800100342E800310029F7D12023C0F8803047
:102788000023036683667047F8B504461346E56F71
:10279800202D30D1E1B1DAB1206FA4F85220A4F88D
:1027A800502000262122C4F88460E164E267226890
:1027B80080B1124FC762124F0763124F2832C0E927
:1027C8000D76FEF703FF28B11023C4F88430E567BF
:1027D80001200FE0236840221A62226802F10803F0
:1027E80053E8003F43F0800302F1080141E800305C
:1027F8000028F3D1F8BD0220FCE700BF112800082B
:1028080059280008672800080268126812F0200298
:1028180008B5836A17D1A3F85220196801F1080294
:1028280052E8002F22F08002083141E800201A689F
:102838000028F2D152E8003F43F0400342E800315B
:102848000029F7D108BD1846FDF7C0FFFAE7704721
:1028580008B5806AFFF7FBFF08BD70477047806ABC
:102868000368C26FD0F8801010B59C6824060ED596
:10287800212A0CD10022A0F8522053E8002F22F080
:10288800C00243E80024002CF7D12022C2679B68CD
:102898005B0606D5222904D10023A0F85A30FFF799
:1028A8004BFFD0F8843043F01003C0F88430FFF7B2
:1028B800D5FF10BD08B5806A0023A0F85A30A0F8EB
:1028C8005230FFF7CBFF08BD704700000368DA6994
:1028D800196870B540F60F0632429D6804460BD160
:1028E800960640F188808E0640F18580836E002B25
:1028F8007BD0BDE8704018479A4E05F001000E40A5
:10290800064378D0D50709D5CE0507D501251D6220
:10291800D4F8845045F00105C4F88450950708D5CB
:1029280038B102251D62D4F8845045F00405C4F876
:102938008450560708D538B104251D62D4F8845050
:1029480045F00205C4F8845015070BD501F02005A1
:10295800054307D008201862D4F8840040F0080026
:10296800C4F8840016050AD54D0108D54FF4006057
:102978001862D4F8843043F02003C4F88430D4F8C3
:102988008430002B31D0900605D58A0603D5A36E76
:102998000BB1204698472668D4F88420B36802F023
:1029A800280203F0400353EA020520461ED0FFF731
:1029B800C3FEB3685B0615D5226802F1080353E825
:1029C800003F23F04003083242E800310029F3D1E8
:1029D800606F38B1644B8363FEF758FE28B1606FAF
:1029E800836B86E72046FFF739FF70BDFFF736FF98
:1029F800C4F88450F9E7206E012840F08780D60695
:102A080040F18480C80640F1818010221A629A68D9
:102A1800510649D5626F11684A6892B2002AE4D01B
:102A2800B4F858009042E0D9A4F85A200A689206EF
:102A38002ED453E8002F22F4807243E800210029A5
:102A4800F7D103F1080252E8002F22F0010203F146
:102A5800080040E800210029F3D103F1080252E8F8
:102A6800002F22F0400203F1080040E8002100296D
:102A7800F3D12022C4F88020216653E8002F22F0E9
:102A8800100243E800210029F7D1606FFEF7DDFD51
:102A980002236366B4F85A30B4F85810C91A89B2D8
:102AA8002046FFF711FFA0E7B4F85A20B4F85A00FF
:102AB800B4F8581080B292B2002896D0891A89B218
:102AC800002992D053E8002F22F4907243E80020A6
:102AD8000028F7D103F1080252E8002F22F0010282
:102AE80003F1080545E800200028F3D12022C4F8A6
:102AF8008020A066206653E8002F22F0100243E8E9
:102B080000200028F7D102236366C9E7D60209D559
:102B1800680207D54FF4801220461A62BDE870405B
:102B280000F04EBB160607D50D0605D5E36E002B43
:102B38003FF45BAF2046DCE650067FF556AF4A0609
:102B48007FF553AF53E8002F22F0400243E80021FD
:102B58000029F7D12023E367E1662046FDF736FE1A
:102B680043E700BF20010004BD280008806A08B5BB
:102B780001234366036E012B05D1B0F858104908AC
:102B8800FFF7A2FE08BDFFF768FEFBE708B503469E
:102B9800806A1B681B6813F0200331D1A0F85A30F3
:102BA800026852E8003F23F4807342E8003103686A
:102BB8000029F5D103F1080252E8002F22F00102A2
:102BC80003F1080C4CE800210029F3D103F10802B5
:102BD80052E8002F22F0400203F1080C4CE80021D3
:102BE8000029F3D12022C0F88020026E012A07D1E3
:102BF80053E8002F22F0100243E800210029F7D102
:102C080000234366036E012B04D1B0F85810FFF778
:102C18005BFE08BDFDF7E2FDFBE7000070B504466A
:102C280003682169A2681D68C0690A4361690A438B
:102C38008F49024329400A431A605A68E16822F41E
:102C480040520A435A608B4AA16993421CBF226AC8
:102C580011439A6822F430620A439A60864A934282
:102C680017D1864BD3F8883003F00303013B022BBE
:102C780000F2CF80824AD35CB0F5004F40F09980D3
:102C8800082B22D8DFE803F0D9C89321CE212121CF
:102C9800DD007C4A934206D1784B7B4AD3F88830D2
:102CA80003F00C03E7E7794A934219D1734BD3F841
:102CB800883003F03003202B00F0B78007D8002BB2
:102CC80000F0B880102B00F0AA8001204EE0302BD5
:102CD800FBD1B0F5004F00F0B4804FF4004083E022
:102CE8006B4A93420FD1654BD3F8883003F0C00389
:102CF800802B00F09A8004D8002B00F09B80402B9A
:102D0800E1E7C02BE4E7634A934212D15B4BD3F867
:102D1800883003F44073B3F5007F00F0868005D84F
:102D2800002B00F08780B3F5807FCCE7B3F5407FB8
:102D3800CEE7504A9342C8D1504BD3F8883003F4B9
:102D48004063B3F5006F15D006D85BB1B3F5806F5B
:102D5800BBD1FEF769FE07E0B3F5406FB5D14FF47C
:102D6800004008E0FFF7D8F928B900200023C4E99B
:102D78001A3370BD4848626802EB42038342A4D804
:102D8800B0EB023FA1D8510800258C464FF480765D
:102D98002946E0FB06C12B466046FDF719FA3F4B72
:102DA800A0F540729A4290D82368D860DDE73A4887
:102DB80047E0082B89D801A252F823F0E92D000832
:102DC8000F2E0008392E0008D32C0008152E0008F5
:102DD800D32C0008D32C0008D32C0008E32C0008BF
:102DE800FFF79AF90028C0D0626800EB5203B3FBE2
:102DF800F2F34FF6EF72A3F1100191423FF665AF7F
:102E08002268D360B1E7FFF799F9EBE7FEF70CFE0C
:102E1800E8E7B0F5004FF6D1FFF790F90FE0B0F50D
:102E2800004FF3D1FEF700FE09E0B0F5004FBED029
:102E38001948D9E7B0F5004FD2D1FFF76DF900284E
:102E480093D06268530803EB4003B3FBF2F34FF6E9
:102E5800EF72A3F1100191423FF637AF23F00F0252
:102E6800216892B2C3F342031343CB607DE700BFEE
:102E7800F369FFEF00800040003801400010024075
:102E88004C370008004400404F3700080048004015
:102E9800004C0040005000400024F400FFFC0F00EC
:102EA800436A1A0710B506D50168446B4A6822F4CC
:102EB800004222434A60DC0706D50168846A4A68F2
:102EC80022F4003222434A60990706D50168C46A91
:102ED8004A6822F4803222434A605A0706D50168BC
:102EE800046B4A6822F4802222434A60DC0606D535
:102EF8000168846B8A6822F4805222438A609906AA
:102F080006D50168C46B8A6822F4005222438A609D
:102F18005A060FD50168046C4A6822F480122243CD
:102F2800B4F5801F4A6005D14A68446C22F4C00297
:102F380022434A601B0606D50268816C536823F455
:102F480000230B43536010BD2DE9F843DDF82090B2
:102F580004460F46164698462268D36937EA0303A3
:102F68000CBF01230023B34201D000201EE0B9F1B9
:102F7800FF3FF2D0FEF742FAA0EB0800484525D8FB
:102F8800B9F1000F22D0206803685A07E4D5C56953
:102F980015F008050CD0082505622046FFF7CCFB84
:102FA8000023C4F8845084F878300120BDE8F88301
:102FB800C3691B05D0D54FF4006303622046FFF7B1
:102FC800BBFB2023C4F8843084F878500320EDE755
:102FD80030B50446002585B0C0F88450FEF70EFAD7
:102FE80022681268110703461CD56FF07E420092D2
:102FF80003902A464FF400112046FFF7A5FF039BD4
:1030080080B1226852E8003F23F0800342E8003193
:103018000029F6D12023E3670320002384F87830C1
:1030280005B030BD22681268520723D56FF07E4282
:1030380000924FF4800100222046FFF785FFC8B1B7
:10304800226852E8003F23F4907342E80031226876
:103058000029F5D102F1080353E8003F23F00103EA
:1030680002F1080040E800310029F3D12023C4F818
:103078008030D1E720230020E367C4F88030206641
:103088006066CAE710B5044640B3C36F1BB980F841
:103098007830FEF7C9F822682423E367136823F021
:1030A80001031360636A13B12046FFF7F9FE204657
:1030B800FFF7B4FD012811D023685A6822F4904222
:1030C8005A609A6822F02A029A601A6842F001024D
:1030D80020461A60BDE81040FFF77ABF012010BDF6
:1030E80070B513460446A0F8582000224165C0F880
:1030F80084202220C4F88000606F2568A0B11C4E8F
:10310800C6621C4E06631C4EC0E90D620A4605F1F4
:103118002401FEF75BFA38B11023C4F88430202369
:10312800C4F88030012070BD226923683AB153E8A1
:10313800002F42F4807243E800210029F7D103F1FF
:10314800080252E8002F42F0010203F1080040E8AB
:1031580000210029F3D103F1080252E8002F42F0C0
:10316800400203F1080141E800200028F3D1DAE722
:10317800952B0008752B000867280008D0F88030C8
:10318800202B30B415D1B9B1B2B10023046803665D
:103198000A4B9C420AD063681B0207D554E8003FDB
:1031A80043F0806344E80035002DF7D130BCFFF7C9
:1031B80097BF022030BC70470120FBE70080004029
:1031C80070470000024B0A460146186800F002B832
:1031D8007C0000202DE9F041804614460E4621B9B6
:1031E800BDE8F041114600F0EDB82AB900F07EF8CC
:1031F80025462846BDE8F08100F070F9844207466C
:1032080002D8B4EB500F12D82146404600F0DAF845
:1032180005460028EDD0BC422246314628BF3A4632
:1032280000F056F83146404600F060F8E1E73546D0
:10323800DFE7884210B501EB020402D98442234635
:1032480007D8431EA14208D011F8012B03F8012F1B
:10325800F8E7024401468A4200D110BD13F8014D37
:1032680002F8014DF7E702440346934200D1704744
:1032780003F8011BF9E70000014B1868704700BF0D
:103288007C00002070B50D4D0D4C641BA410002669
:10329800A64209D10B4D0C4C00F038F9641BA41060
:1032A8000026A64205D170BD55F8043B9847013663
:1032B800EEE755F8043B98470136F2E76437000813
:1032C80064370008643700086C3700087047704797
:1032D8000A44914200F1FF3300D1704710B511F84C
:1032E800014B03F8014F9142F9D110BD37B50029C0
:1032F80044D051F8043C0190002BA1F10404B8BF5C
:10330800E41800F0DFF81E4A0198136833B96360C7
:10331800146003B0BDE8304000F0DAB8A34208D921
:10332800256861198B4201BF19685B6849192160DA
:10333800EDE71A465B680BB1A342FAD91168551834
:10334800A5420BD1246821445418A3421160E0D14E
:103358001C685B6853600C441460DAE702D90C23DC
:103368000360D6E7256861198B4204BF19685B685A
:10337800636004BF491921605460CAE703B030BDD7
:10338800580C002070B50E4E0C463168054611B930
:1033980000F0ACF830602146284600F0A7F8431C3E
:1033A8000AD0C41C24F00304A04207D0211A2846DE
:1033B80000F09CF8013001D14FF0FF34204670BD79
:1033C8005C0C00202DE9F843CD1C25F003050835D9
:1033D8000C2D38BF0C25002D074601DBA94205D965
:1033E8000C233B6000263046BDE8F883DFF8D08028
:1033F80000F068F8D8F800301C465CBB294638460F
:10340800FFF7C0FF431C044655D1D8F800402646B4
:10341800002E45D1002C48D023683146384604EBAD
:10342800030900F063F881453FD121686D1A2946E8
:103438003846FFF7A7FF013037D023682B442360B5
:10344800D8F80030002B38D05A68A2422BD100227D
:103458005A600FE02268521B1FD40B2A17D9611932
:10346800A342256018BF5960636808BFC8F80010F8
:1034780062514B60384604F10B0600F029F826F03B
:103488000706231DF21AAED09B1BA350ABE7A3423D
:103498006268DDD1C8F80020ECE723466468ACE731
:1034A80034467668B4E71346CCE70C233B603846CD
:1034B80000F00EF897E72560DCE75B60FFDE00BFF1
:1034C800580C00200148FFF701BF00BF540C002032
:1034D8000148FFF7FCBE00BF540C002051F8043C23
:1034E800181F002BBCBF0B58C018704738B5064DC5
:1034F8000023044608462B60FDF740FE431C02D11A
:103508002B6803B1236038BD500C0020F8B500BF0C
:10351800F8BC08BC9E467047F8B500BFF8BC08BCAC
:043528009E46704704
:10352C007374645F6D7367732F54696D65006364A6
:10353C003731363663373463353532633331316680
:10354C0062636332666535613762633238390072A3
:10355C006F7373657269616C5F6D7367732F546FF2
:10356C00706963496E666F00306164353166383856
:10357C006663343438393266386331303638343037
:10358C00373736343630303500726F737365726985
:10359C00616C5F6D7367732F4C6F670031316162C3
:1035AC006437333163323539333332363163643611
:1035BC003138336264313264363239350039663031
:1035CC006539386264613635393831393836646476
:1035DC006635336166613761343065343900737434
:1035EC00645F6D7367732F537472696E670039393A
:1035FC0032636538613136383763656338633862F6
:10360C006438383365633733636134316431004D6A
:10361C006573736167652066726F6D20646576698A
:10362C0063652064726F707065643A206D657373A6
:10363C00616765206C6172676572207468616E20C9
:10364C006275666665722E006368617474657200DB
:10365C000000000000000000BB050008E3050008A6
:10366C0021060008290600080000000000000000E8
:10367C00B10900087F0A0008310600083906000865
:10368C000000000000000000850900084B0A00083B
:10369C004106000849060008000000000000000078
:1036AC007D0800084B0B000851060008590600085D
:1036BC00000000000000000059080008470C00083A
:1036CC006106000869060008000000000000000008
:1036DC00D5060008D90D000871060008726F7373C7
:1036EC00657269616C5F6D7367732F526571756577
:1036FC007374506172616D000000000000000000E6
:10370C00010203040607080900000000010203047B
:10371C00A0860100400D0300801A060000350C0045
:10372C0040420F0080841E0000093D0000127A0008
:10373C000024F40000366E010048E801006CDC0245
:10374C0004020800101010041010100210101008C1
:08375C00ACCAFF7F0100000070
:08376400AD0100082D10000862
:04376C0089010008C7
:10377000313030303A3530303A3235303A3130301D
:103780003A3235303A3530303A313030303A313201
:103790003530000000093D0001000000100000006D
:1037A00000000000180B0020800B0020E80B002018
:1037B0000000000000000000000000000000000009
:1037C00000000000000000000000000000000000F9
:1037D00000000000000000000000000000000000E9
:1037E0000000000000000000000000003000002089
:040000050800132DAF
:00000001FF
